S0190000494E545F4D494E5F5345435F57415443482E73726563CD
S113000045C0000060C000005EC000005CC000008D
S11300105AC0000058C0000056C0000054C0000080
S113002052C0000050C000004EC000004CC0000090
S11300304AC0000048C0000046C0000044C00000A0
S1130040C8C1000040C000003EC000003CC0000029
S11300503AC0000038C0000036C0000034C00000C0
S113006032C0000030C000002EC000002CC00000D0
S11300702AC0000028C0000026C0000024C00000E0
S113008022C0000020C000001EC0000011241FBEBA
S1130090CFEFD0E1DEBFCDBF11E0A0E0B1E0E0ECF6
S11300A0F7E000E00BBF02C007900D92AA30B10741
S11300B0D9F721E0AAE0B1E001C01D92A133B20753
S11300C0E1F775D27BC39CCF81B38F7081BB089558
S11300D080B3807190910C01911111C0882379F043
S11300E02FEF8DEE92E0215080409040E1F700C068
S11300F0000081E080930C0180E090E0089591304D
S113010081F4811111C010920C012FEF86E791E068
S1130110215080409040E1F700C0000081E090E071
S1130120089580E090E0089580E090E0089580B321
S1130130807290910B01911111C0882379F02FEFF7
S11301408DEE92E0215080409040E1F700C0000025
S113015081E080930B0180E090E00895913081F478
S1130160811111C010920B012FEF86E791E021500D
S113017080409040E1F700C0000081E090E00895E5
S113018080E090E0089580E090E0089580B380746A
S113019090910A01911111C0882379F02FEF8DEE0F
S11301A092E0215080409040E1F700C0000081E0DF
S11301B080930A0180E090E00895913081F48111E8
S11301C011C010920A012FEF86E791E02150804080
S11301D09040E1F700C0000081E090E0089580E0E5
S11301E090E0089580E090E0089590932E0180932C
S11301F02D01089580912D0190912E010895CF93A2
S1130200DF93CDB7DEB72A970FB6F894DEBF0FBEE3
S1130210CDBF8AE0E0E0F1E0DE01119601900D929D
S11302208A95E1F7E7DFAC0180910D0190910E0111
S11302308130910561F140F08230910509F453C099
S1130240039709F47EC0AAC080E888BB9A01ADEC8C
S1130250BCECA5D2969587959695879596958795A6
S11302609C01220F331F880F991F880F991F880F35
S1130270991F820F931F9A01281B390BE1E0F0E0CC
S1130280EC0FFD1FE20FF31F808185BB87C080E464
S113029088BB9A01ADECBCEC82D2AC015695479573
S11302A056954795569547959A0179D2969587958F
S11302B096958795969587959C01220F331F880FF5
S11302C0991F880F991F880F991F820F931F9A01F6
S11302D0281B390BE1E0F0E0EC0FFD1FE20FF31FE8
S11302E0808185BB5BC080E288BB9A0136952795E7
S11302F036952795ABE7B4E152D2AC0156954795B4
S11303009A01ADECBCEC4BD2969587959695879562
S1130310969587959C01220F331F880F991F880F8C
S1130320991F880F991F820F931F9A01281B390B5D
S1130330E1E0F0E0EC0FFD1FE20FF31F808185BBCD
S11303402DC080E188BB9A0136952795369527956F
S113035036952795A5ECB0E222D2AC015295429590
S11303604F7045275F7045279A01ABEABAEA17D266
S113037096958795969587959C01220F331F820F3A
S1130380931F880F991F9A01281B390BE1E0F0E0B5
S1130390EC0FFD1FE20FF31F808185BB80910D01DF
S11303A090910E0101968370992790930E0180938A
S11303B00D012A960FB6F894DEBF0FBECDBFDF91B4
S11303C0CF9108958FEF84BB87B3806F87BB15BA35
S11303D008951F920F920FB60F9211240BB60F922D
S11303E02F933F934F935F936F937F938F939F9339
S11303F0AF93BF93EF93FF9386E082BF80911B017D
S113040090911C01A0911D01B0911E010196A11DA6
S1130410B11D80931B0190931C01A0931D01B09307
S11304201E01883E9340A105B105E0F010921B0126
S113043010921C0110921D0110921E01809117014F
S113044090911801A0911901B0911A010196A11D72
S1130450B11D8093170190931801A0931901B093D3
S11304601A0187D180911B0190911C01A0911D015B
S1130470B0911E0183709927AA27BB27892B8A2B49
S11304808B2B09F4BCDE80912801909129010197FE
S113049009F4D6D07BDE892B51F0EAE2F1E0128236
S11304A011821082E2E6F0E08081897F808380916E
S11304B015019091160101969093160180931501F0
S11304C08091150190911601843F91401CF1109286
S11304D0160110921501209113013091140181E04D
S11304E090E0232B11F080E090E09093140180932E
S11304F013018091130190911401892B31F0E2E6EC
S1130500F0E080818160808305C0E2E6F0E08081D4
S11305108E7F8083DDDD892B29F1209111013091BB
S1130520120181E090E0232B11F080E090E09093A1
S11305301201809311018091110190911201892B74
S113054049F0E2E6F0E080818460808380818D7FE1
S1130550808308C0E2E6F0E080818260808380814D
S11305608B7F8083FF91EF91BF91AF919F918F918A
S11305707F916F915F914F913F912F910F900BBE9F
S11305800F900FBE0F901F90189586E082BF87E0F2
S113059080936100E2E6F0E080818260808383B72B
S11305A0846083BF87B7816087BF78940895CF93B1
S11305B0DF9300D01F92CDB7DEB704DF85DDE5DF22
S11305C01092100110920F0110922901109228012B
S11305D080910F0190911001009719F00197B9F0E3
S11305E0F7CFCE010196BAD02A818B8190E034E610
S11305F0239F800D911D1124F8DD6ADD892B41F3C1
S113060081E090E09093100180930F01E1CF8091FD
S11306102801909129018130910539F082309105AA
S113062031F0892B29F464D003C055D001C078D0AF
S11306304FDD892B69F21092100110920F01C8CF7F
S113064080911F018F5F80931F01843678F110928F
S11306501F01809120019091210101969093210125
S113066080932001CC9714F1109221011092200163
S1130670809122019091230101969093230180930C
S11306802201CC979CF010922301109222018091B8
S113069024019091250101969093250180932401D2
S11306A0489724F010922501109224018091220190
S11306B09091230144E6489F9001499F300D1124F5
S11306C08091200190912101820F931F9093270123
S11306D0809326010895809126019091270185DD5C
S11306E026DD892B21F0109229011092280108950A
S11306F0809126019091270178DD19DD892B31F055
S113070081E090E090932901809328013FDD892BBB
S113071031F082E090E090932901809328010895BC
S1130720109227011092260110922901109228019B
S1130730109225011092240110922301109222019B
S1130740109221011092200110921F0180E090E08C
S11307504CDD1092290110922801089520912A015C
S113076030912B0140912C01FC0120833183428381
S11307700895EAE2F1E082818F5F82838C3370F026
S1130780128281818F5F81838C3340F0118280815A
S11307908F5F8083883110F010922A010895A29F00
S11307A0B001B39FC001A39F700D811D1124911D41
S11307B0B29F700D811D1124911D0895F894FFCFEF
S10D07C0C0F9A4B0999282D8809881
S9030000FC
