:1000000045C0000053C0000051C000004FC00000B8
:100010004DC000004BC0000049C0000047C00000B8
:1000200045C0000043C0000041C000003FC00000C8
:100030003DC000003BC0000039C0000037C00000D8
:1000400035C0000033C0000031C000002FC00000E8
:100050002DC000002BC0000029C0000027C00000F8
:1000600025C0000023C0000021C000001FC0000008
:100070001DC000001BC0000019C0000017C0000018
:1000800015C0000013C0000011C0000011241FBEE5
:10009000CFEFD0E1DEBFCDBF21E0A0E0B1E001C0F5
:1000A0001D92A930B207E1F785D18CC1A9CF81B3E8
:1000B0008F7081BB089580B380719091020191117E
:1000C00011C0882379F02FEF8DEE92E0215080400F
:1000D0009040E1F700C0000081E08093020180E0E1
:1000E00090E00895913081F4811111C010920201C5
:1000F0002FEF86E791E0215080409040E1F700C06B
:10010000000081E090E0089580E090E0089580E0B4
:1001100090E0089580B3807290910101911111C017
:10012000882379F02FEF8DEE92E0215080409040AF
:10013000E1F700C0000081E08093010180E090E0E1
:100140000895913081F4811111C0109201012FEFB7
:1001500086E791E0215080409040E1F700C0000028
:1001600081E090E0089580E090E0089580E090E0E4
:10017000089580B3807490910001911111C088237B
:1001800079F02FEF8DEE92E0215080409040E1F722
:1001900000C0000081E08093000180E090E00895BD
:1001A000913081F4811111C0109200012FEF86E788
:1001B00091E0215080409040E1F700C0000081E0D4
:1001C00090E0089580E090E0089580E090E0089548
:1001D00072DF892B09F443C081E090E02091070190
:1001E00030910801232B11F080E090E090930801FA
:1001F00080930701892BB9F480E090E02DC021E0C5
:1002000030E0082E02C0220F331F0A94E2F72BBB06
:100210002FEF31EE44E0215030404040E1F700C084
:100220000000019602C080E090E0883091053CF328
:10023000089520E830E0082E02C0359527950A94ED
:10024000E2F72BBB2FEF31EE44E02150304040402D
:10025000E1F700C0000001968830910554F308953D
:1002600059DF892B09F447C081E090E02091050116
:1002700030910601232B11F080E090E0909306016D
:1002800080930501892BD1F488E090E032C02FEFF4
:1002900030E0082E02C0359527950A94E2F72BBB73
:1002A0002FEF31EE44E0215030404040E1F700C0F4
:1002B0000000009709F41BBA019702C088E090E0A3
:1002C00099232CF708952FEF30E0082E02C0220F5B
:1002D000331F0A94E2F72BBB2FEF31EE44E021509D
:1002E00030404040E1F700C00000009709F41BBA1D
:1002F0000197992344F708953CDF892B09F459C0ED
:1003000081E090E02091030130910401232B11F052
:1003100080E090E09093040180930301892B11F514
:1003200020E030E043C080E890E0AC01022E02C043
:10033000559547950A94E2F781E090E0022E02C0BD
:10034000880F991F0A94E2F7842B8BBB4FEF83ED44
:1003500090E3415080409040E1F700C000002F5FE3
:100360003F4F02C020E030E024303105E4F2089530
:1003700080E190E0AC01022E02C0440F551F0A94A8
:10038000E2F788E090E0022E02C0959587950A94E6
:10039000E2F7842B8BBB4FEF83ED90E3415080401D
:1003A0009040E1F700C000002F5F3F4F243031053F
:1003B000FCF208958FEF8ABB1BBA79DE09DF50DFAC
:0803C0009BDFFCCFF894FFCF96
:00000001FF
