S00E000052435F4341522E737265634C
S113000045C0000060C000005EC000005CC000008D
S11300105AC0000079C30000C4C300000FC400002C
S113002052C0000050C000004EC000004CC0000090
S11300304AC0000048C0000010C2000044C00000D4
S1130040C3C0000040C00000CAC200003CC00000A1
S11300503AC0000038C0000036C0000034C00000C0
S113006032C0000030C000002EC000002CC00000D0
S11300702AC0000028C000001BC3000024C00000E8
S113008022C0000020C000001EC0000011241FBEBA
S1130090CFEFD0E1DEBFCDBF11E0A0E0B1E0ECE4F2
S11300A0FDE000E00BBF02C007900D92A431B10740
S11300B0D9F721E0A4E1B1E001C01D92A739B2074C
S11300C0E1F7B2D141C69CCF84B38F7784BB089546
S11300D083B3807890911401911111C0882379F031
S11300E02FEF8DEE92E0215080409040E1F700C068
S11300F0000081E08093140180E090E00895913045
S113010081F4811111C0109214012FEF86E791E060
S1130110215080409040E1F700C0000081E090E071
S1130120089580E090E0089580E090E00895D0DFA5
S1130130892B71F081E090E0209115013091160136
S1130140232B11F080E090E0909316018093150129
S11301508091150190911601892B31F0E5E6F0E0CC
S11301608081806180830895E5E6F0E080818F7E60
S113017080830895E4E6F0E080818F6180830895B0
S1130180E5E6F0E080818160808380818D7F8083DB
S11301900895E5E6F0E080818260808380818E7F2F
S11301A080830895E5E6F0E0808183608083808128
S11301B0837F80830895E5E6F0E080818C6080830E
S11301C080818C7F808308951F920F920FB60F92C7
S11301D011248F939F93AF93BF9386E082BF809146
S11301E01B0190911C01A0911D01B0911E0101966B
S11301F0A11DB11D80931B0190931C01A0931D01AF
S1130200B0931E0180911B0190911C01A0911D01CE
S1130210B0911E01C297A105B105D8F010921B013F
S113022010921C0110921D0110921E018091170161
S113023090911801A0911901B0911A010196A11D84
S1130240B11D8093170190931801A0931901B093E5
S11302501A018091170190911801A0911901B09190
S11302601A010397A105B10540F0109217011092ED
S113027018011092190110921A01BF91AF919F9128
S11302808F910F900FBE0F901F90189520912A0107
S113029030912B0180910001909101018217930705
S11302A00CF1209126013091270180912801909131
S11302B029018217930734F4809104019091050178
S11302C03FD110C02091260130912701809128014F
S11302D090912901281739072CF4809104019091F9
S11302E0050108D120912801309129018091020152
S11302F090910301821793070CF120912A01309108
S11303002B0180912601909127018217930734F4E1
S1130310809104019091050113D110C020912A010C
S113032030912B01809126019091270128173907DC
S11303302CF4809104019091050112D120912601A1
S11303403091270180910001909101018217930758
S11303500CF1209126013091270180912801909180
S113036029018217930734F48091040190910501C7
S1130370F7C008952091260130912701809128012A
S113038090912901281739072CF480910401909148
S11303900501B0C0089520912A0130912B0180916C
S11303A00201909103018217930774F420912801AC
S11303B030912901821793073CF420912601309152
S11303C027018217930714F061CF089520912A0121
S11303D030912B012817390784F42091280130919A
S11303E02901281739074CF420912601309127015F
S11303F02817390714F4C4C008958091040190911A
S1130400050178C0089586E082BF87E0809361008B
S1130410E2E6F0E080818260808383B7846083BFFA
S113042087B7816087BF089541D0A4DE4DDE16D121
S113043028D1E9DF50D286E091E090939401809333
S113044093017894ABD073DE8091150190911601DD
S1130450892BC1F3A0DFCAD2F5CF1F920F920FB63A
S11304600F9211248F939F93AF93BF9386E090E0F4
S11304709DBD8CBD80911F0190912001A09121010F
S1130480B09122010196A11DB11D80931F0190938B
S11304902001A0932101B0932201BF91AF919F91BC
S11304A08F910F900FBE0F901F901895E1E6F0E02A
S11304B080818F60808387B3806687BB8EB58360BD
S11304C08EBD8EB588618EBD8FB582608FBD8FB5B0
S11304D080688FBD8FB580628FBDE2E6F0E08081D9
S11304E0807F80838081856080838FEF93E097BDD8
S11304F086BD0895CF93DF93EC0154DEE2E6F0E08D
S11305008081807F8083808185608083DBBDCABDDC
S1130510D9BDC8BDDF91CF910895CF93DF93EC018E
S11305204ADEE2E6F0E08081807F808380818A6019
S11305308083DBBDCABDD9BDC8BDDF91CF9108950D
S113054028DEE2E6F0E08081807F80838081856020
S113055080831BBC1ABC8FEF93E099BD88BD0895BE
S11305600FDEE2E6F0E08081807F80838081856019
S1130570808380E092E09BBD8ABD19BC18BC0895BD
S11305801ADE1BBC1ABC19BC18BCE2E6F0E0808180
S1130590807F808380818F60808308958091900123
S11305A08C3499F028F4823461F0863431F0089563
S11305B0823579F0833589F0089584EF91E09ACFFC
S11305C0089584EF91E0A9CF08958CEB92E0B8CF21
S11305D008958CEB92E0C4CF0895D2CF08951F9272
S11305E00F920FB60F9211240BB60F922F933F93D5
S11305F04F935F938F93EF93FF938CB18D3011F0F2
S11306008A3079F4E0912301F0912401E45DFE4FF6
S11306101082109224011092230181E0809325011D
S11306200FC02091230130912401A9014F5F5F4F36
S11306305093240140932301F901E45DFE4F80832C
S1130640FF91EF918F915F914F913F912F910F9077
S11306500BBE0F900FBE0F901F9018951092900034
S11306608FEC89B98BB182608BB9E5E9F0E08081C8
S11306708660808388E98AB908955D9BFECF8CB932
S11306800895EAE9F0E0808188698083EBE9F0E08D
S1130690808182608083109298008FEC809399000F
S11306A0089580919B008823E4F780919C0008952D
S11306B01F920F920FB60F9211240BB60F922F9325
S11306C03F934F935F936F937F938F939F93AF93D6
S11306D0BF93EF93FF93E5DF8093900180919001A6
S11306E0CCDFFF91EF91BF91AF919F918F917F915B
S11306F06F915F914F913F912F910F900BBE0F908F
S11307000FBE0F901F9018951F920F920FB60F9265
S113071011240BB60F922F933F934F935F936F93D4
S11307207F938F939F93AF93BF93EF93FF930C9B10
S113073005C0109289001092880020C06091880042
S11307407091890080E090E0ECD120E034E244E74D
S113075059E475D220E030E040E854E470D220E05F
S113076034E244E75BE444D120E030E048E652E47C
S11307703FD1A6D170932B0160932A01FF91EF9191
S1130780BF91AF919F918F917F916F915F914F91A5
S11307903F912F910F900BBE0F900FBE0F901F90A3
S11307A018951F920F920FB60F9211240BB60F9249
S11307B02F933F934F935F936F937F938F939F9365
S11307C0AF93BF93EF93FF930D9B05C010928900E5
S11307D01092880020C0609188007091890080E0A8
S11307E090E09FD120E034E244E759E428D220E0AD
S11307F030E040E854E423D220E034E244E75BE410
S1130800F7D020E030E048E652E4F2D059D17093BA
S1130810290160932801FF91EF91BF91AF919F91BE
S11308208F917F916F915F914F913F912F910F9095
S11308300BBE0F900FBE0F901F9018951F920F9232
S11308400FB60F9211240BB60F922F933F934F9331
S11308505F936F937F938F939F93AF93BF93EF9324
S1130860FF930E9B05C0109289001092880020C04F
S1130870609188007091890080E090E052D120E07E
S113088034E244E759E4DBD120E030E040E854E4CA
S1130890D6D120E034E244E75BE4AAD020E030E0A3
S11308A048E652E4A5D00CD1709327016093260149
S11308B0FF91EF91BF91AF919F918F917F916F9134
S11308C05F914F913F912F910F900BBE0F900FBEF0
S11308D00F901F9018958AB381608ABB82B18F7E76
S11308E082B98AB781608ABFEAE8F0E080818560D6
S11308F0808389B7806189BF8AB382608ABB82B1F1
S11309008F7D82B98AB784608ABF80818560808345
S113091089B7806289BF8AB384608ABB82B18F7BC6
S113092082B98AB780618ABF80818560808389B7F4
S1130930806489BF08958091170190911801A09156
S11309401901B0911A0181309105A105B105B9F0E1
S113095028F00297A105B10519F132C08BB38E7F3F
S11309608BBB85E08A95F1F700008BB381608BBB6C
S113097080E58A95F1F78BB38E7F8BBB21C08BB357
S11309808D7F8BBB85E08A95F1F700008BB3826085
S11309908BBB80E58A95F1F78BB38D7F8BBB10C041
S11309A08BB38B7F8BBB85E08A95F1F700008BB30B
S11309B084608BBB80E58A95F1F78BB38B7F8BBB0F
S11309C060911701709118018091190190911A0199
S11309D023E030E040E050E095D16093170170933C
S11309E018018093190190931A010895A4CF0895D2
S11309F00CD0EBC0E3D040F0DAD030F021F45F3F0C
S1130A0019F0CCC0511115C1CFC0F0D098F399237F
S1130A10C9F35523B1F3951B550BBB27AA276217BE
S1130A207307840738F09F5F5F4F220F331F441F03
S1130A30AA1FA9F333D00E2E3AF0E0E830D091503B
S1130A405040E695001CCAF729D0FE2F27D0660F28
S1130A50771F881FBB1F261737074807AB07B0E867
S1130A6009F0BB0B802DBF01FF2793585F4F2AF07D
S1130A709E3F510568F092C0DCC05F3FECF3983EA6
S1130A80DCF3869577956795B795F7959F5FC9F7DA
S1130A90880F911D9695879597F90895E1E0660F63
S1130AA0771F881FBB1F621773078407BA0720F0DC
S1130AB0621B730B840BBA0BEE1F88F7E095089545
S1130AC004D06894B111B5C0089598D088F09F57A8
S1130AD090F0B92F9927B751A0F0D1F0660F771F86
S1130AE0881F991F1AF0BA95C9F712C0B13081F066
S1130AF09FD0B1E008959CC0672F782F8827B85FF6
S1130B0039F0B93FCCF3869577956795B395D9F7C6
S1130B103EF490958095709561957F4F8F4F9F4FD0
S1130B200895E89409C097FB3EF4909580957095DC
S1130B3061957F4F8F4F9F4F9923A9F0F92F96E925
S1130B40BB279395F695879577956795B795F1119A
S1130B50F8CFFAF4BB0F11F460FF1BC06F5F7F4F37
S1130B608F4F9F4F16C0882311F096E911C0772349
S1130B7021F09EE8872F762F05C0662371F096E852
S1130B80862F70E060E02AF09A95660F771F881F21
S1130B90DAF7880F9695879597F9089597F99F67DF
S1130BA080E870E060E008959FEF80EC08950024F1
S1130BB00A941616170618060906089500240A94BE
S1130BC012161306140605060895092E0394000C44
S1130BD011F4882352F0BB0F40F4BF2B11F460FFD3
S1130BE004C06F5F7F4F8F4F9F4F089557FD9058FC
S1130BF0440F551F59F05F3F71F04795880F97FBDD
S1130C00991F61F09F3F79F0879508951216130696
S1130C101406551FF2CF4695F1DF08C016161706C5
S1130C201806991FF1CF86957105610508940895FA
S1130C30E894BB2766277727CB0197F908950BD053
S1130C40C4CFB5DF28F0BADF18F0952309F0A6CF9A
S1130C50ABCF1124EECFCADFA0F3959FD1F3950F4C
S1130C6050E0551F629FF001729FBB27F00DB11D2C
S1130C70639FAA27F00DB11DAA1F649F6627B00DBC
S1130C80A11D661F829F2227B00DA11D621F739FA5
S1130C90B00DA11D621F839FA00D611D221F749FB3
S1130CA03327A00D611D231F849F600D211D822FFA
S1130CB0762F6A2F11249F5750408AF0E1F0882341
S1130CC04AF0EE0FFF1FBB1F661F771F881F91504E
S1130CD05040A9F79E3F510570F060CFAACF5F3F07
S1130CE0ECF3983EDCF3869577956795B795F79581
S1130CF0E7959F5FC1F7FE2B880F911D9695879509
S1130D0097F90895A1E21A2EAA1BBB1BFD010DC081
S1130D10AA1FBB1FEE1FFF1FA217B307E407F507A7
S1130D2020F0A21BB30BE40BF50B661F771F881F83
S1130D30991F1A9469F760957095809590959B0119
S10F0D40AC01BD01CF010895F894FFCF71
S1130D4C0F001E00580200000002000000003D03CA
S1070D5C000000008F
S9030000FC
