S0190000494E545F4D494E5F5345435F57415443482E73726563CD
S113000045C0000060C000005EC000005CC000008D
S11300105AC0000058C0000056C0000054C0000080
S113002052C0000050C000004EC000004CC0000090
S11300304AC0000048C0000046C0000044C00000A0
S1130040E0C1000040C0000065C300003CC00000E7
S11300503AC0000038C0000036C0000034C00000C0
S113006032C0000030C000002EC000002CC00000D0
S11300702AC0000028C0000026C0000024C00000E0
S113008022C0000020C000001EC0000011241FBEBA
S1130090CFEFD0E1DEBFCDBF11E0A0E0B1E0E2E8F8
S11300A0F9E000E00BBF02C007900D92AE33B10738
S11300B0D9F722E0AEE3B1E001C01D92A231B2074C
S11300C0E1F71CD25CC49CCF81B38F7081BB0895CF
S11300D080B3807190914001911111C0882379F00F
S11300E02FEF8DEE92E0215080409040E1F700C068
S11300F0000081E08093400180E090E00895913019
S113010081F4811111C0109240012FEF86E791E034
S1130110215080409040E1F700C0000081E090E071
S1130120089580E090E0089580E090E0089580B321
S1130130807290913F01911111C0882379F02FEFC3
S11301408DEE92E0215080409040E1F700C0000025
S113015081E080933F0180E090E00895913081F444
S1130160811111C010923F012FEF86E791E02150D9
S113017080409040E1F700C0000081E090E00895E5
S113018080E090E0089580E090E0089580B380746A
S113019090913E01911111C0882379F02FEF8DEEDB
S11301A092E0215080409040E1F700C0000081E0DF
S11301B080933E0180E090E00895913081F48111B4
S11301C011C010923E012FEF86E791E0215080404C
S11301D09040E1F700C0000081E090E0089580E0E5
S11301E090E0089580E090E008959093A5018093B5
S11301F0A40108958091A4019091A5010895CF933D
S1130200DF93CDB7DEB72A970FB6F894DEBF0FBEE3
S1130210CDBF8AE0EEE0F1E0DE01119601900D928F
S11302208A95E1F7E7DFAC0180914101813059F112
S113023038F0823009F453C0833009F47EC0AAC078
S11302408FE788BB9A01ADECBCEC4CD396958795AF
S113025096958795969587959C01220F331F880F55
S1130260991F880F991F880F991F820F931F9A0156
S1130270281B390BE1E0F0E0EC0FFD1FE20FF31F48
S1130280808185BB87C08FEB88BB9A01ADECBCEC49
S113029029D3AC015695479556954795569547955C
S11302A09A0120D3969587959695879596958795E7
S11302B09C01220F331F880F991F880F991F880FE5
S11302C0991F820F931F9A01281B390BE1E0F0E07C
S11302D0EC0FFD1FE20FF31F808185BB5BC08FED28
S11302E088BB9A013695279536952795ABE7B4E1F7
S11302F0F9D2AC01569547959A01ADECBCECF2D21B
S11303009695879596958795969587959C01220F46
S1130310331F880F991F880F991F880F991F820F09
S1130320931F9A01281B390BE1E0F0E0EC0FFD1F4D
S1130330E20FF31F808185BB2DC08FEE88BB9A012D
S1130340369527953695279536952795A5ECB0E2F1
S1130350C9D2AC01529542954F7045275F7045272D
S11303609A01ABEABAEABED2969587959695879597
S11303709C01220F331F820F931F880F991F9A012C
S1130380281B390BE1E0F0E0EC0FFD1FE20FF31F37
S1130390808185BB809141018F5F8370809341018F
S11303A02A960FB6F894DEBF0FBECDBFDF91CF9172
S11303B008959FEF94BB87B3806F87BB95BB089567
S11303C08FEF8ABB089581E090E020914201309143
S11303D04301232B11F080E090E09093430180933C
S11303E04201892B19F08FEF8BBB01C01BBA2FEF91
S11303F085EA9EE0215080409040E1F700C0000073
S113040008951F920F920FB60F9211240BB60F92FC
S11304102F933F934F935F936F937F938F939F9308
S1130420AF93BF93EF93FF9386E082BF80914C011B
S113043090914D01A0914E01B0914F010196A11DE3
S1130440B11D80934C0190934D01A0934E01B09344
S11304504F01883E9340A105B105E0F010924C0194
S113046010924D0110924E0110924F01809148015B
S113047090914901A0914A01B0914B010196A11DAF
S1130480B11D8093480190934901A0934A01B09310
S11304904B012AD180914C0190914D01A0914E01C4
S11304A0B0914F0183709927AA27BB27892B8A2BE8
S11304B08B2B09F4A4DE80915B0190915C01019780
S11304C009F471D0FF91EF91BF91AF919F918F91FA
S11304D07F916F915F914F913F912F910F900BBE40
S11304E00F900FBE0F901F90189586E082BF83B7C0
S11304F0846083BF87B7816087BF0895CF93DF93FC
S113050000D01F92CDB7DEB75BDF53DFDDDD41D115
S113051096D180E091E090930F0280930E02E5DF84
S11305207894109247011092460110925C01109247
S11305305B018091460190914701009719F0019762
S1130540B9F02EC0CE010196C4D02A818B8190E0EF
S113055034E6239F800D911D112447DEB9DD892BDC
S1130560F9F081E090E0909347018093460118C030
S113057080915B0190915C018130910539F082306A
S1130580910531F0892B29F46ED003C05FD001C0EE
S113059082D09EDD892B21F01092470110924601F2
S11305A00BD15DD1C6CF809150018F5F80935001F4
S11305B0843678F11092500180915101909152014A
S11305C001969093520180935101CC9714F11092AB
S11305D0520110925101809153019091540101965E
S11305E09093540180935301CC979CF01092540142
S11305F01092530180915501909156010196909368
S1130600560180935501489724F010925601109298
S11306105501809153019091540144E6489F900103
S1130620499F300D11248091510190915201820F04
S1130630931F092E000CAA0BBB0B809357019093B8
S11306405801A0935901B0935A010895809157011C
S113065090915801CADD6BDD892B21F010925C0169
S113066010925B0108958091570190915801BDDD6E
S11306705EDD892B31F081E090E090935C01809302
S11306805B0184DD892B31F082E090E090935C0182
S113069080935B01089510925701109258011092B3
S11306A0590110925A01109256011092550110925C
S11306B05401109253011092520110925101109260
S11306C0500180E090E091DD10925C0110925B019A
S11306D0089520915D0130915E0140915F01FC011C
S11306E02083318342830895EDE5F1E082818F5FB9
S11306F082838C3370F0128281818F5F81838C338B
S113070040F0118280818F5F8083883110F01092D5
S11307105D0108951F920F920FB60F9211240BB62C
S11307200F922F933F934F935F938F93EF93FF9386
S11307308CB18D3011F08A3079F4E0916001F09140
S11307406101E855FE4F1082109261011092600120
S113075081E0809362010FC02091600130916101BA
S1130760A9014F5F5F4F5093610140936001F9010C
S1130770E855FE4F8083FF91EF918F915F914F91E8
S11307803F912F910F900BBE0F900FBE0F901F90B3
S11307901895109290008FEC89B98BB182608BB957
S11307A0E5E9F0E080818660808388E98AB908956C
S11307B05D9BFECF8CB90895809162018823B9F1C5
S11307C01092620188EA91E0AAD047E050E068E123
S11307D071E088EA91E095D0892B11F48FEF8BBBFF
S11307E048E050E061E271E088EA91E08AD0892B28
S11307F009F41BBA44E050E06BE271E088EA91E04E
S113080080D0892B29F41BBA10924501109244011F
S11308104BE050E061E371E088EA91E072D0892B0B
S113082031F481E090E090934501809344018091FC
S1130830440190914501019709F4C5CD0895EAE971
S1130840F0E0808188698083EBE9F0E08081826058
S11308508083109298008FEC809399000895809182
S113086063018823B9F11092630184E691E057D0C3
S113087047E050E068E171E084E691E042D0892BE2
S113088011F48FEF8BBB48E050E061E271E084E645
S113089091E037D0892B09F41BBA44E050E06BE2B5
S11308A071E084E691E02DD0892B29F41BBA1092D3
S11308B04501109244014BE050E061E371E084E6AD
S11308C091E01FD0892B31F481E090E090934501B1
S11308D0809344018091440190914501019709F46A
S11308E072CD0895A29FB001B39FC001A39F700D64
S11308F0811D1124911DB29F700D811D1124911D24
S11309000895FB01DC014150504030F08D9101907D
S1130910801919F40020B9F7881B990B08950F93D7
S11309201F93CF93DF93E0910E02F0910F02238186
S113093021FF1BC08C01D0E0C0E0F80181918F0140
S113094060910E0270910F02DB011896ED91FC91FB
S11309501997882331F00995892B79F3DFEFCFEFCD
S1130960ECCF8AE00995892B19F08FEF9FEF02C035
S11309708D2F9C2FDF91CF911F910F910895F894A3
S1050980FFCFA3
S11309820000000200000000D803000000003F063F
S11309925B4F666D7D277F676C6564616C6C6F6EFF
S11309A2006C6564616C6C6F666600726573657475
S11109B2006C6564616C6C746F67676C650043
S9030000FC
