:1000000053C000006FC000006DC000006BC0000056
:1000100069C000000C94970865C0000063C0000030
:1000200061C000005FC000005DC000005BC0000058
:1000300059C0000057C0000055C0000053C0000068
:10004000ACC300004FC000007FC600004BC00000E2
:1000500049C0000047C0000045C0000043C0000088
:1000600041C000003FC000003DC000003BC0000098
:1000700039C0000037C0000035C0000033C00000A8
:1000800031C000002FC000002DC000009707990765
:100090009B079D079F07A107A30789088B088D0869
:1000A0008F0891089308950811241FBECFEFD0E167
:1000B000DEBFCDBF11E0A0E0B1E0E6E4FCE100E08E
:1000C0000BBF02C007900D92AC3DB107D9F722E0FB
:1000D000ACEDB1E001C01D92AB3FB207E1F7BED479
:1000E0000C94210E8DCF81B38F7081BB089580B3A6
:1000F00080719091DE01911111C0882379F02FEF6A
:100100008DEE92E0215080409040E1F700C0000069
:1001100081E08093DE0180E090E00895913081F4E9
:10012000811111C01092DE012FEF86E791E021507E
:1001300080409040E1F700C0000081E090E0089529
:1001400080E090E0089580E090E0089580B38072B0
:100150009091DD01911111C0882379F02FEF8DEE80
:1001600092E0215080409040E1F700C0000081E023
:100170008093DD0180E090E00895913081F4811159
:1001800011C01092DD012FEF86E791E021508040F1
:100190009040E1F700C0000081E090E0089580E029
:1001A00090E0089580E090E0089580B3807490918D
:1001B000DC01911111C0882379F02FEF8DEE92E0D0
:1001C000215080409040E1F700C0000081E0809322
:1001D000DC0180E090E00895913081F4811111C03C
:1001E0001092DC012FEF86E791E021508040904093
:1001F000E1F700C0000081E090E0089580E090E029
:10020000089580E090E0089590935A0280935902F7
:1002100008958091590290915A020895CF93DF93E7
:10022000CDB7DEB72A970FB6F894DEBF0FBECDBFAD
:100230008AE0EEE0F1E0DE01119601900D928A95E0
:10024000E1F7E7DFAC018091DF019091E0018130BF
:10025000910569F140F08230910509F456C0039789
:1002600009F483C0B1C080E888BB9A01ADECBCEC56
:100270000E94E50A96958795969587959695879518
:100280009C01220F331F880F991F880F991F880F19
:10029000991F820F931F9A01281B390BE1E0F0E0B0
:1002A000EC0FFD1FE20FF31F808185BB8DC080E442
:1002B00088BB9A01ADECBCEC0E94E50AAC015695F6
:1002C000479556954795569547959A010E94E50A98
:1002D0009695879596958795969587959C01220F7B
:1002E000331F880F991F880F991F880F991F820F3E
:1002F000931F9A01281B390BE1E0F0E0EC0FFD1F82
:10030000E20FF31F808185BB5FC080E288BB9A014A
:100310003695279536952795ABE7B4E10E94E50A17
:10032000AC01569547959A01ADECBCEC0E94E50AEC
:100330009695879596958795969587959C01220F1A
:10034000331F880F991F880F991F880F991F820FDD
:10035000931F9A01281B390BE1E0F0E0EC0FFD1F21
:10036000E20FF31F808185BB2FC080E188BB9A011B
:10037000369527953695279536952795A5ECB0E2C5
:100380000E94E50AAC01529542954F7045275F7077
:1003900045279A01ABEABAEA0E94E50A9695879545
:1003A000969587959C01220F331F820F931F880F0C
:1003B000991F9A01281B390BE1E0F0E0EC0FFD1FBB
:1003C000E20FF31F808185BB8091DF019091E001F6
:1003D0000196837099279093E0018093DF012A961C
:1003E0000FB6F894DEBF0FBECDBFDF91CF91089559
:1003F0008FEF84BB87B3806F87BB15BA0895809356
:100400007000089584EA80937400809174008823BA
:10041000E4F708958093730084E8809374008091DA
:1004200074008823E4F7089584E9809374000895A4
:10043000CF93DF93D82FC62FE5DF8D2FEBDF8C2FE7
:10044000E9DFF2DFDF91CF9108951F93CF93DF9320
:1004500000D000D0CDB7DEB7282F207F30E1839FBA
:10046000C0011124922F9D60998329602A83982FBF
:100470009D609B8389608C8310E00AC0E1E0F0E01E
:10048000EC0FFD1FE10FF11D60818EE4D1DF1F5FD6
:100490001430A0F30F900F900F900F90DF91CF9139
:1004A0001F9108951F93CF93DF9300D000D0CDB755
:1004B000DEB7282F207F30E1839FC0011124922FC7
:1004C0009C60998328602A83982F9C609B83886016
:1004D0008C8310E00AC0E1E0F0E0EC0FFD1FE10FBB
:1004E000F11D60818EE4A4DF1F5F1430A0F30F9034
:1004F0000F900F900F90DF91CF911F91089580E1A1
:1005000097E27DDF2FEF80E792E02150804090401E
:10051000E1F700C0000083E3C5DF82E3C3DF88E2C8
:10052000C1DF8CE0BFDF86E0BDDF81E0BBDF8FE3B2
:100530009CE90197F1F700C0000008950F931F9305
:10054000CF938C01C0E002C080DFCF5FF801EC0FD9
:10055000F11D80818111F8CFCF911F910F910895E6
:100560006F70817090E4899F600D1124862F8058F0
:1005700099CF0895CF93DF93EA01F2DFCE01DEDF5A
:10058000DF91CF9108958FEF8ABB08958091F30199
:100590009091F401A091F501B091F601892B8A2B7D
:1005A0008B2B19F08FEF8BBB08951BBA089520E0B9
:1005B00030E01FC08091F3019091F401A091F5010A
:1005C000B091F601892B8A2B8B2B99F081E090E07A
:1005D000022E02C0880F991F0A94E2F78BBB2F5F8F
:1005E0003F4F1092F3011092F4011092F501109216
:1005F000F60128303105F4F2089520E030E01FC004
:100600008091F3019091F401A091F501B091F60170
:10061000892B8A2B8B2B99F080E890E0022E02C068
:10062000959587950A94E2F78BBB2F5F3F4F109209
:10063000F3011092F4011092F5011092F6012830A6
:100640003105F4F2089527E030E01FC08091F301F6
:100650009091F401A091F501B091F601892B8A2BBC
:100660008B2B99F08FEF90E0022E02C09595879525
:100670000A94E2F78BBB215031091092F3011092DA
:10068000F4011092F5011092F6013323FCF608955F
:1006900027E030E01FC08091F3019091F401A09118
:1006A000F501B091F601892B8A2B8B2B99F08FEFF6
:1006B00090E0022E02C0880F991F0A94E2F78BBBCC
:1006C000215031091092F3011092F4011092F501BA
:1006D0001092F6013323FCF6089520E030E029C0A3
:1006E0008091F3019091F401A091F501B091F60190
:1006F000892B8A2B8B2BE9F080E890E0AC01022E4D
:1007000002C0559547950A94E2F781E090E0022EE9
:1007100002C0880F991F0A94E2F7842B8BBB2F5FCE
:100720003F4F1092F3011092F4011092F5011092D4
:10073000F60124303105A4F2089520E030E029C00C
:100740008091F3019091F401A091F501B091F6012F
:10075000892B8A2B8B2BE9F080E190E0AC01022EF3
:1007600002C0440F551F0A94E2F788E090E0022E81
:1007700002C0959587950A94E2F7842B8BBB2F5F77
:100780003F4F1092F3011092F4011092F501109274
:10079000F60124303105A4F208951F920F920FB68E
:1007A0000F9211240BB60F92CF92DF92EF92FF922D
:1007B0002F933F934F935F936F937F938F939F9369
:1007C000AF93BF93EF93FF9386E082BFC090030285
:1007D000D0900402E0900502F09006022FEFC21ABA
:1007E000D20AE20AF20AC0920302D0920402E09214
:1007F0000502F09206028091FB019091FC01A0910C
:10080000FD01B091FE01BC01CD016F5F7F4F8F4FA5
:100810009F4F6093FB017093FC018093FD019093C7
:10082000FE012091F1013091F2012F5F3F4F309393
:10083000F2012093F1012091EF013091F0012F5F3F
:100840003F4F3093F0012093EF012091ED01309163
:10085000EE012F5F3F4F3093EE012093ED012CE22C
:1008600031E040E050E02093F7013093F8014093ED
:10087000F9015093FA017ED6672B682B692B99F406
:100880008091F3019091F401A091F501B091F601EE
:100890000196A11DB11D8093F3019093F401A093E3
:1008A000F501B093F60188EEC81683E0D806E1049E
:1008B000F104E0F01092030210920402109205027B
:1008C000109206028091FF0190910002A091010216
:1008D000B09102020196A11DB11D8093FF0190937A
:1008E0000002A0930102B093020218D28091030289
:1008F00090910402A0910502B0910602837099279D
:10090000AA27BB27892B8A2B8B2B09F487DC8091A4
:10091000100290911102019709F467D146DC892BEE
:1009200051F0E2E1F2E0128211821082E2E6F0E0A0
:100930008081897F80838091EB019091EC01019609
:100940009093EC018093EB018091EB019091EC018D
:10095000843F91401CF11092EC011092EB01209128
:10096000E9013091EA0181E090E0232B11F080E071
:1009700090E09093EA018093E9018091E9019091E0
:10098000EA01892B31F0E2E6F0E08081816080832A
:1009900005C0E2E6F0E080818E7F8083A8DB892BB2
:1009A00029F12091E7013091E80181E090E0232BCB
:1009B00011F080E090E09093E8018093E70180914E
:1009C000E7019091E801892B49F0E2E6F0E08081AF
:1009D0008460808380818D7F808308C0E2E6F0E0C0
:1009E00080818260808380818B7F8083FF91EF9103
:1009F000BF91AF919F918F917F916F915F914F9137
:100A00003F912F91FF90EF90DF90CF900F900BBE12
:100A10000F900FBE0F901F90189586E082BF87E061
:100A200080936100E2E6F0E080818260808383B79A
:100A3000846083BF87B7816087BF08958091ED018F
:100A40009091EE01893E934044F01092EE01109295
:100A5000ED0181EC92E0EAD5D8C30895CF93DF93FE
:100A6000CDB7DEB7C355D1090FB6F894DEBF0FBEC0
:100A7000CDBF89DDBDDC37DBA6D167D240DD80E0AC
:100A800091E09093F8028093F702C7DFACD378949B
:100A90001092E6011092E5011092110210921002DC
:100AA0008091E5019091E601009719F00197B9F066
:100AB0002EC0CE01019627D12A818B8190E034E6A9
:100AC000239F800D911D11249FDB11DB892BF9F0F1
:100AD00081E090E09093E6018093E50118C0809159
:100AE0001002909111028130910539F08230910508
:100AF00031F0892B29F4D1D003C0C2D001C0E5D098
:100B0000F6DA892B21F01092E6011092E5016ED100
:100B10002CD294DF8091F1019091F201893E9340B3
:100B20004CF11092F2011092F10148E151E060E0C5
:100B300070E080E090E01EDD2B819A8189811F9218
:100B40002F931F929F931F928F9389E291E09F931F
:100B50008F938E010C5F1F4F1F930F9397D5A801A2
:100B600060E070E080E090E005DD0FB6F894DEBF55
:100B70000FBECDBF8091EF019091F001853F914074
:100B80000CF48ECF1092F0011092EF0148E151E089
:100B900060E070E081E090E0EDDC809109028F93ED
:100BA000809108028F9380910B028F9380910A02AB
:100BB0008F9380910D028F9380910C028F938DE320
:100BC00091E09F938F938E01045D1F4F1F930F93AE
:100BD0005DD5A80160E070E081E090E0CBDC0FB66D
:100BE000F894DEBF0FBECDBF5BCF809107028F5F51
:100BF00080930702843678F11092070280910802F0
:100C00009091090201969093090280930802CC9773
:100C100014F1109209021092080280910A02909138
:100C20000B02019690930B0280930A02CC979CF0E2
:100C300010920B0210920A0280910C0290910D0208
:100C4000019690930D0280930C02489724F0109225
:100C50000D0210920C0280910A0290910B0244E660
:100C6000489F9001499F300D112480910802909176
:100C70000902820F931F90930F0280930E02089532
:100C800080910E0290910F02BFDA60DA892B21F079
:100C90001092110210921002089580910E0290910C
:100CA0000F02B2DA53DA892B31F081E090E09093B1
:100CB00011028093100279DA892B31F082E090E002
:100CC0009093110280931002089510920F021092D7
:100CD0000E02109211021092100210920D02109248
:100CE0000C0210920B0210920A021092090210924A
:100CF00008021092070280E090E086DA109211025A
:100D00001092100208952091120230911302409126
:100D10001402FC012083318342830895E2E1F2E072
:100D200082818F5F82838C3370F0128281818F5F2A
:100D300081838C3340F0118280818F5F8083883182
:100D400010F01092120208951F920F920FB60F9298
:100D500011240BB60F922F933F934F935F938F9372
:100D6000EF93FF938CB18D3011F08A3079F4E091DC
:100D70001502F0911602E35AFD4F108210921602EE
:100D80001092150281E0809317020FC02091150286
:100D900030911602A9014F5F5F4F509316024093A6
:100DA0001502F901E35AFD4F8083FF91EF918F9176
:100DB0005F914F913F912F910F900BBE0F900FBEFF
:100DC0000F901F901895109290008FEC89B98BB1FD
:100DD00082608BB9E5E9F0E080818660808388E9F4
:100DE0008AB908955D9BFECF8CB908958091170252
:100DF000882309F491C0109217028DE592E016D471
:100E000047E050E060E571E08DE592E001D4892B88
:100E100011F48FEF8BBB48E050E069E571E08DE5A0
:100E200092E0F6D3892B09F41BBA44E050E063E664
:100E300071E08DE592E0ECD3892B09F41BBA109296
:100E4000E2011092E1014BE050E069E671E08DE5CE
:100E500092E0DED3892B31F481E090E09093E201BF
:100E60008093E1014DE050E066E771E08DE592E0AE
:100E7000CFD3892B31F482E090E09093E20180930C
:100E8000E1014EE050E065E871E08DE592E0C0D30D
:100E9000892B31F483E090E09093E2018093E101AB
:100EA00041E150E065E971E08DE592E0B1D3892B35
:100EB00031F484E090E09093E2018093E10142E11B
:100EC00050E068EA71E08DE592E0A2D3892B31F41D
:100ED00085E090E09093E2018093E10144E050E0EE
:100EE0006CEB71E08DE592E093D3892B31F486E0D1
:100EF00090E09093E2018093E10148E050E062ECE1
:100F000071E08DE592E084D3892B31F487E090E0A5
:100F10009093E2018093E101E091E101F091E2011F
:100F20003197E730F10580F4EA5BFF4F45C32ECBE4
:100F300008953DCB089561CB089585CB0895A8CB46
:100F40000895CBCB0895F9CB0895EAE9F0E08081CC
:100F500088698083EBE9F0E0808182608083109271
:100F600098008FEC8093990008958091180288234F
:100F700009F4BFC01092180289E192E057D347E00C
:100F800050E060E571E089E192E042D3892B11F4F1
:100F90008FEF8BBB48E050E069E571E089E192E0BA
:100FA00037D3892B09F41BBA44E050E063E671E0C3
:100FB00089E192E02DD3892B09F41BBA1092E1014B
:100FC0001092E2011092E3011092E4014BE050E034
:100FD00069E671E089E192E01BD3892B61F481E03D
:100FE00090E0A0E0B0E08093E1019093E201A09353
:100FF000E301B093E4014DE050E066E771E089E180
:1010000092E006D3892B61F482E090E0A0E0B0E0AA
:101010008093E1019093E201A093E301B093E40196
:101020004EE050E065E871E089E192E0F1D2892B71
:1010300061F483E090E0A0E0B0E08093E101909360
:10104000E201A093E301B093E40141E150E065E9DE
:1010500071E089E192E0DCD2892B61F484E090E0D8
:10106000A0E0B0E08093E1019093E201A093E3015E
:10107000B093E40142E150E068EA71E089E192E076
:10108000C7D2892B61F485E090E0A0E0B0E08093C6
:10109000E1019093E201A093E301B093E40144E005
:1010A00050E06CEB71E089E192E0B2D2892B61F4FF
:1010B00086E090E0A0E0B0E08093E1019093E2014F
:1010C000A093E301B093E40148E050E062EC71E0EA
:1010D00089E192E09DD2892B61F487E090E0A0E065
:1010E000B0E08093E1019093E201A093E301B0931B
:1010F000E4018091E1019091E201A091E301B091BE
:10110000E401FC013197E730F10580F4E35BFF4F28
:1011100053C23CCA08954BCA08956FCA089593CA32
:101120000895B6CA0895D9CA089507CB08951F92A5
:101130000F920FB60F9211240BB60F922F933F937D
:101140004F935F936F937F938F939F93AF93BF93CF
:10115000EF93FF930C9B03C01DBC1CBC31C06CB54E
:101160007DB580E090E002D120E034E244E759E42C
:101170008BD120E030E040E854E486D120E034E236
:1011800044E75BE45AD0C1D07093F4026093F30259
:101190008091F3029091F4026AE370E0D8D17F93DA
:1011A0006F938CEC91E09F938F9381EC92E09F93EF
:1011B0008F936CD20F900F900F900F900F900F9015
:1011C000FF91EF91BF91AF919F918F917F916F911F
:1011D0005F914F913F912F910F900BBE0F900FBEDB
:1011E0000F901F901895E4E6F0E080818061808385
:1011F00082B18F7E82B98AB781608ABF8EB58560E1
:101200008EBD89B7806189BF0895E5E6F0E08081F1
:101210008F7E80838FE99FE00197F1F700C0000087
:101220008081806180838FE59AEE0197F1F700C09D
:10123000000080818F7E808308950CD0EBC0E3D0C6
:1012400040F0DAD030F021F45F3F19F0CCC05111FA
:1012500015C1CFC0F0D098F39923C9F35523B1F34A
:10126000951B550BBB27AA2762177307840738F015
:101270009F5F5F4F220F331F441FAA1FA9F333D074
:101280000E2E3AF0E0E830D091505040E695001C28
:10129000CAF729D0FE2F27D0660F771F881FBB1FE4
:1012A000261737074807AB07B0E809F0BB0B802DBE
:1012B000BF01FF2793585F4F2AF09E3F510568F00A
:1012C00092C0DCC05F3FECF3983EDCF386957795E7
:1012D0006795B795F7959F5FC9F7880F911D96950C
:1012E000879597F90895E1E0660F771F881FBB1F68
:1012F000621773078407BA0720F0621B730B840B15
:10130000BA0BEE1F88F7E095089504D06894B111E8
:10131000B5C0089598D088F09F5790F0B92F9927BD
:10132000B751A0F0D1F0660F771F881F991F1AF0F0
:10133000BA95C9F712C0B13081F09FD0B1E00895DD
:101340009CC0672F782F8827B85F39F0B93FCCF35E
:10135000869577956795B395D9F73EF490958095E6
:10136000709561957F4F8F4F9F4F0895E89409C006
:1013700097FB3EF490958095709561957F4F8F4FC8
:101380009F4F9923A9F0F92F96E9BB279395F695DE
:10139000879577956795B795F111F8CFFAF4BB0F5C
:1013A00011F460FF1BC06F5F7F4F8F4F9F4F16C0C0
:1013B000882311F096E911C0772321F09EE8872F4A
:1013C000762F05C0662371F096E8862F70E060E006
:1013D0002AF09A95660F771F881FDAF7880F96957F
:1013E000879597F9089597F99F6780E870E060E026
:1013F00008959FEF80EC089500240A9416161706AE
:1014000018060906089500240A94121613061406F5
:1014100005060895092E0394000C11F4882352F058
:10142000BB0F40F4BF2B11F460FF04C06F5F7F4F10
:101430008F4F9F4F089557FD9058440F551F59F0F7
:101440005F3F71F04795880F97FB991F61F09F3FB1
:1014500079F087950895121613061406551FF2CFDA
:101460004695F1DF08C0161617061806991FF1CF2A
:1014700086957105610508940895E894BB27662751
:101480007727CB0197F908950BD0C4CFB5DF28F0AB
:10149000BADF18F0952309F0A6CFABCF1124EECF19
:1014A000CADFA0F3959FD1F3950F50E0551F629FBF
:1014B000F001729FBB27F00DB11D639FAA27F00DAD
:1014C000B11DAA1F649F6627B00DA11D661F829FD4
:1014D0002227B00DA11D621F739FB00DA11D621FB9
:1014E000839FA00D611D221F749F3327A00D611DD6
:1014F000231F849F600D211D822F762F6A2F1124B8
:101500009F5750408AF0E1F088234AF0EE0FFF1F0A
:10151000BB1F661F771F881F91505040A9F79E3F41
:10152000510570F060CFAACF5F3FECF3983EDCF33B
:10153000869577956795B795F795E7959F5FC1F77E
:10154000FE2B880F911D9695879597F9089597FB27
:10155000072E16F4009406D077FD08D045D007FC7E
:1015600005D03EF4909581959F4F089570956195B3
:101570007F4F0895A1E21A2EAA1BBB1BFD010DC0CF
:10158000AA1FBB1FEE1FFF1FA217B307E407F50733
:1015900020F0A21BB30BE40BF50B661F771F881F0F
:1015A000991F1A9469F760957095809590959B01A5
:1015B000AC01BD01CF010895EE0FFF1F0024001CF8
:1015C0000BBE0790F691E02D0994A29FB001B39F46
:1015D000C001A39F700D811D1124911DB29F700D3C
:1015E000811D1124911D0895AA1BBB1B51E107C049
:1015F000AA1FBB1FA617B70710F0A61BB70B881FA3
:10160000991F5A95A9F780959095BC01CD01089531
:10161000FB01DC014150504030F08D910190801968
:1016200019F40020B9F7881B990B08950F931F93A5
:10163000CF93DF93E091F702F091F802238121FF2D
:101640001BC08C01D0E0C0E0F80181918F01609156
:10165000F7027091F802DB011896ED91FC91199751
:10166000882331F00995892B79F3DFEFCFEFECCFA9
:101670008AE00995892B19F08FEF9FEF02C08D2F1B
:101680009C2FDF91CF911F910F9108950F931F937E
:10169000CF93DF93CDB7DEB72E970FB6F894DEBFAA
:1016A0000FBECDBF0D891E8986E08C831A83098306
:1016B0008FEF9FE79E838D83AE01475E5F4F6F89FB
:1016C000788DCE01019610D0EF81F885E00FF11FE3
:1016D00010822E960FB6F894DEBF0FBECDBFDF91FD
:1016E000CF911F910F9108952F923F924F925F9249
:1016F0006F927F928F929F92AF92BF92CF92DF9222
:10170000EF92FF920F931F93CF93DF93CDB7DEB786
:101710002B970FB6F894DEBF0FBECDBF6C017B01D7
:101720008A01FC0117821682838181FFBFC1CE012D
:1017300001963C01F6019381F70193FD859193FF9A
:1017400081917F01882309F4ADC1853239F493FD7D
:10175000859193FF81917F01853221F4B60190E05C
:10176000D6D1E8CF912C212C312CFFE1F315D8F004
:101770008B3279F038F4803279F08332A1F4232D62
:1017800020611DC08D3261F0803369F4232D21600A
:1017900016C0832D8260382EE32DE4603E2E2AC0D1
:1017A000F32DF8601DC037FC2DC020ED280F2A3026
:1017B00040F08E32B9F436FC75C1232D2064322EF0
:1017C00019C036FE06C08AE0989E200D1124922E84
:1017D00011C0EAE02E9E200D1124222EF32DF0627E
:1017E0003F2E08C08C3621F4832D8068382E02C02D
:1017F000883641F4F70193FD859193FF81917F0134
:101800008111B3CF982F9F7D9554933028F40C5FAE
:101810001F4F9FE399830DC0833631F0833771F0FA
:10182000833509F055C020C0F801808189830E5F9F
:101830001F4F88248394912C530112C02801F2E099
:101840004F0E511CF801A080B18036FE03C0692DF7
:1018500070E002C06FEF7FEFC5014ED14C018201F5
:10186000F32DFF773F2E15C0280122E0420E511CB8
:10187000F801A080B18036FE03C0692D70E002C07F
:101880006FEF7FEFC5012DD14C01F32DF0683F2E96
:10189000820133FC19C0822D90E088169906A0F4CD
:1018A000B60180E290E033D12A94F5CFF50137FC00
:1018B000859137FE81915F01B60190E028D121101A
:1018C0002A9421E0821A91088114910479F7E1C0E9
:1018D000843611F0893639F5F80137FE07C060818A
:1018E0007181828193810C5F1F4F08C0608171817B
:1018F000072E000C880B990B0E5F1F4FF32DFF7600
:101900003F2E97FF09C090958095709561957F4F08
:101910008F4F9F4FF0683F2E2AE030E0A30133D174
:10192000882E861844C0853731F4232D2F7EB22EA1
:101930002AE030E025C0932D997FB92E8F36C1F073
:1019400018F4883579F0AEC0803719F0883721F067
:10195000A9C0E92FE061BE2EB4FE0DC0FB2DF460DE
:10196000BF2E09C034FE0AC0292F2660B22E06C041
:1019700028E030E005C020E130E002C020E132E0A4
:10198000F801B7FE07C060817181828193810C5F8D
:101990001F4F06C06081718180E090E00E5F1F4F95
:1019A000A301F1D0882E8618FB2DFF773F2E36FE3F
:1019B0000DC0232D2E7FA22E891458F434FE0BC0A7
:1019C00032FC09C0832D8E7EA82E05C0B82CA32C16
:1019D00003C0B82C01C0B92CA4FE0FC0FE01E80D55
:1019E000F11D8081803321F49A2D997EA92E09C0A2
:1019F000A2FE06C0B394B39404C08A2D867809F081
:101A0000B394A3FC10C0A0FE06C0B21480F4280C4E
:101A1000922C9B180DC0B21458F4B60180E290E0ED
:101A200076D0B394F8CFB21418F42B1802C0982CC7
:101A3000212CA4FE0FC0B60180E390E068D0A2FE86
:101A400016C0A1FC03C088E790E002C088E590E0E2
:101A5000B6010CC08A2D867851F0A1FE02C08BE23F
:101A600001C080E2A7FC8DE2B60190E050D089145D
:101A700030F4B60180E390E04AD09A94F8CF8A948B
:101A8000F301E80DF11D8081B60190E040D0811096
:101A9000F6CF222009F44ECEB60180E290E037D096
:101AA0002A94F7CFF6018681978102C08FEF9FEFCE
:101AB0002B960FB6F894DEBF0FBECDBFDF91CF914E
:101AC0001F910F91FF90EF90DF90CF90BF90AF905C
:101AD0009F908F907F906F905F904F903F902F904E
:101AE0000895FC010590615070400110D8F7809571
:101AF00090958E0F9F1F0895FC01615070400190DA
:101B00000110D8F7809590958E0F9F1F08950F9321
:101B10001F93CF93DF93FB01238121FD03C08FEF40
:101B20009FEF2CC022FF16C046815781248135814A
:101B30004217530744F4A081B1819D012F5F3F4FAD
:101B4000318320838C93268137812F5F3F4F3783EA
:101B5000268314C08B01EC01FB010084F185E02D8C
:101B60000995892BE1F6D80116968D919C911797CE
:101B7000019617969C938E931697CE01DF91CF9185
:101B80001F910F910895FA01AA27283051F12031B1
:101B900081F1E8946F936E7F6E5F7F4F8F4F9F4F01
:101BA000AF4FB1E03ED0B4E03CD0670F781F891F43
:101BB0009A1FA11D680F791F8A1F911DA11D6A0F11
:101BC000711D811D911DA11D20D009F468943F91C4
:101BD0002AE0269F11243019305D3193DEF6CF01C3
:101BE0000895462F4770405D4193B3E00FD0C9F789
:101BF000F6CF462F4F70405D4A3318F0495D31FDF6
:101C00004052419302D0A9F7EACFB4E0A695979548
:101C1000879577956795BA95C9F70097610571051E
:101C200008959B01AC010A2E069457954795379568
:101C30002795BA95C9F7620F731F841F951FA01DC2
:061C40000895F894FFCFA7
:101C46000000000200000000F20600000000C0F9DB
:101C5600A4B0999282D8809820202020202020208D
:101C6600202020202020202000636C6F636B203A08
:101C7600202532643A2532643A2532640073746F43
:101C860070203A202532643A2532643A25326400BF
:101C96006C6564616C6C6F6E006C6564616C6C6F16
:101CA6006666007265736574006C6564616C6C745D
:101CB6006F67676C650073686966746C6566746CDB
:101CC60065646F6E00736869667472696768746CC0
:101CD60065646F6E0073686966746C656674686FB8
:101CE6006C646C65646F6E007368696674726967AC
:101CF6006874686F6C646C65646F6E00665F6F66AF
:101D06006600666C6F7765725F6F6E0064697374E8
:0C1D1600616E6365203A202564636D0057
:00000001FF
