S010000030345F74696D65722E7372656330
S113000045C0000053C0000051C000004FC00000B4
S11300104DC000004BC0000049C0000047C00000B4
S113002045C0000043C0000041C000003FC00000C4
S11300303DC000003BC0000039C0000037C00000D4
S113004036C0000033C0000031C000002FC00000E3
S11300502DC000002BC0000029C0000027C00000F4
S113006025C0000023C0000021C000001FC0000004
S11300701DC000001BC0000019C0000017C0000014
S113008015C0000013C0000011C0000011241FBEE1
S1130090CFEFD0E1DEBFCDBF21E0A0E0B1E001C0F1
S11300A01D92A830B207E1F774D07EC0A9CF1F9289
S11300B00F920FB60F9211242F933F938F939F9318
S11300C086E082BF8091060190910701019690938A
S11300D00701809306018091060190910701843FF6
S11300E09140FCF010920701109206012091040146
S11300F03091050181E090E0232B11F080E090E045
S1130100909305018093040180910401909105016D
S1130110892B21F088B3816088BB03C088B38E7FAC
S113012088BB809102019091030101969093030191
S11301308093020180910201909103018C329140DD
S1130140FCF0109203011092020120910001309101
S1130150010181E090E0232B11F080E090E0909386
S11301600101809300018091000190910101892B8C
S113017021F088B3846088BB03C088B38B7F88BBBD
S11301809F918F913F912F910F900FBE0F901F90D1
S1130190189585E087BB18BA83B7846083BF87B797
S10F01A0816087BF7894FFCFF894FFCFF4
S9030000FC
