:1000000053C000006EC000006CC000006AC0000059
:1000100068C0000066C0000064C0000062C000004C
:1000200060C000005EC000005CC000005AC000005C
:1000300058C0000056C0000054C0000052C000006C
:10004000E0C200004EC0000013C500004AC000001E
:1000500048C0000046C0000044C0000042C000008C
:1000600040C000003EC000003CC000003AC000009C
:1000700038C0000036C0000034C0000032C00000AC
:1000800030C000002EC000002CC000002B062D0642
:100090002F0631063306350637061D071F072107D1
:1000A000230725072707290711241FBECFEFD0E11B
:1000B000DEBFCDBF11E0A0E0B1E0EAE4FFE000E088
:1000C0000BBF02C007900D92A439B107D9F722E007
:1000D000A4E9B1E001C01D92A937B207E1F7C4D38A
:1000E00032C78ECF81B38F7081BB089580B380718A
:1000F00090919601911111C0882379F02FEF8DEE28
:1001000092E0215080409040E1F700C0000081E083
:100110008093960180E090E00895913081F4811100
:1001200011C0109296012FEF86E791E02150804098
:100130009040E1F700C0000081E090E0089580E089
:1001400090E0089580E090E0089580B380729091EF
:100150009501911111C0882379F02FEF8DEE92E077
:10016000215080409040E1F700C0000081E0809382
:10017000950180E090E00895913081F4811111C0E3
:10018000109295012FEF86E791E02150804090403A
:10019000E1F700C0000081E090E0089580E090E089
:1001A000089580E090E0089580B380749091940168
:1001B000911111C0882379F02FEF8DEE92E021503C
:1001C00080409040E1F700C0000081E080939401FE
:1001D00080E090E00895913081F4811111C0109277
:1001E00094012FEF86E791E0215080409040E1F7A5
:1001F00000C0000081E090E0089580E090E0089564
:1002000080E090E0089590930C0280930B02089593
:1002100080910B0290910C020895CF93DF93CDB79C
:10022000DEB72A970FB6F894DEBF0FBECDBF8AE0C7
:10023000EEE0F1E0DE01119601900D928A95E1F772
:10024000E7DFAC0180919701909198018130910591
:1002500061F140F08230910509F453C0039709F42D
:100260007EC0AAC080E888BB9A01ADECBCEC1ED66B
:100270009695879596958795969587959C01220FDB
:10028000331F880F991F880F991F880F991F820F9E
:10029000931F9A01281B390BE1E0F0E0EC0FFD1FE2
:1002A000E20FF31F808185BB87C080E488BB9A0181
:1002B000ADECBCECFBD5AC015695479556954795F2
:1002C000569547959A01F2D5969587959695879577
:1002D000969587959C01220F331F880F991F880FD1
:1002E000991F880F991F820F931F9A01281B390BA2
:1002F000E1E0F0E0EC0FFD1FE20FF31F808185BB12
:100300005BC080E288BB9A01369527953695279584
:10031000ABE7B4E1CBD5AC01569547959A01ADEC6E
:10032000BCECC4D5969587959695879596958795B7
:100330009C01220F331F880F991F880F991F880F68
:10034000991F820F931F9A01281B390BE1E0F0E0FF
:10035000EC0FFD1FE20FF31F808185BB2DC080E1F4
:1003600088BB9A013695279536952795369527951A
:10037000A5ECB0E29BD5AC01529542954F70452754
:100380005F7045279A01ABEABAEA90D596958795B2
:10039000969587959C01220F331F820F931F880F1C
:1003A000991F9A01281B390BE1E0F0E0EC0FFD1FCB
:1003B000E20FF31F808185BB809197019091980196
:1003C00001968370992790939801809397012A96BC
:1003D0000FB6F894DEBF0FBECDBFDF91CF91089569
:1003E0008FEF84BB87B3806F87BB15BA08958FEFFB
:1003F0008ABB08958091A5019091A601A091A701C3
:10040000B091A801892B8A2B8B2B19F08FEF8BBB16
:1004100008951BBA089520E030E01FC08091A50127
:100420009091A601A091A701B091A801892B8A2BD8
:100430008B2B99F081E090E0022E02C0880F991F6B
:100440000A94E2F78BBB2F5F3F4F1092A5011092E9
:10045000A6011092A7011092A80128303105F4F2EC
:10046000089520E030E01FC08091A5019091A60181
:10047000A091A701B091A801892B8A2B8B2B99F011
:1004800080E890E0022E02C0959587950A94E2F7E5
:100490008BBB2F5F3F4F1092A5011092A6011092C7
:1004A000A7011092A80128303105F4F2089527E041
:1004B00030E01FC08091A5019091A601A091A701F5
:1004C000B091A801892B8A2B8B2B99F08FEF90E0AC
:1004D000022E02C0959587950A94E2F78BBB2150B6
:1004E00031091092A5011092A6011092A701109255
:1004F000A8013323FCF6089527E030E01FC0809167
:10050000A5019091A601A091A701B091A801892B06
:100510008A2B8B2B99F08FEF90E0022E02C0880F70
:10052000991F0A94E2F78BBB215031091092A50163
:100530001092A6011092A7011092A8013323FCF695
:10054000089520E030E029C08091A5019091A60196
:10055000A091A701B091A801892B8A2B8B2BE9F0E0
:1005600080E890E0AC01022E02C0559547950A94B0
:10057000E2F781E090E0022E02C0880F991F0A94F2
:10058000E2F7842B8BBB2F5F3F4F1092A501109297
:10059000A6011092A7011092A80124303105A4F2FF
:1005A000089520E030E029C08091A5019091A60136
:1005B000A091A701B091A801892B8A2B8B2BE9F080
:1005C00080E190E0AC01022E02C0440F551F0A9456
:1005D000E2F788E090E0022E02C0959587950A9494
:1005E000E2F7842B8BBB2F5F3F4F1092A501109237
:1005F000A6011092A7011092A80124303105A4F29F
:1006000008951F920F920FB60F9211240BB60F92FE
:10061000CF92DF92EF92FF922F933F934F935F938E
:100620006F937F938F939F93AF93BF93EF93FF93BA
:1006300086E082BFC090B501D090B601E090B701CE
:10064000F090B8012FEFC21AD20AE20AF20AC09261
:10065000B501D092B601E092B701F092B801809155
:10066000AD019091AE01A091AF01B091B001BC017C
:10067000CD016F5F7F4F8F4F9F4F6093AD017093A0
:10068000AE018093AF019093B0012CE231E040E0E5
:1006900050E02093A9013093AA014093AB015093FD
:1006A000AC01D9D3672B682B692B99F48091A501F4
:1006B0009091A601A091A701B091A8010196A11D5A
:1006C000B11D8093A5019093A601A093A701B093BB
:1006D000A80188EEC81683E0D806E104F104E0F032
:1006E0001092B5011092B6011092B7011092B801A4
:1006F0008091B1019091B201A091B301B091B40188
:100700000196A11DB11D8093B1019093B201A093F8
:10071000B301B093B40196D18091B5019091B60127
:10072000A091B701B091B80183709927AA27BB2780
:10073000892B8A2B8B2B09F470DD8091C20190915B
:10074000C301019709F4E5D02FDD892B51F0E4ECCA
:10075000F1E0128211821082E2E6F0E08081897F6E
:1007600080838091A3019091A40101969093A401AC
:100770008093A3018091A3019091A401843F9140B3
:100780001CF11092A4011092A3012091A1013091BB
:10079000A20181E090E0232B11F080E090E09093A3
:1007A000A2018093A1018091A1019091A201892BC6
:1007B00031F0E2E6F0E080818160808305C0E2E60E
:1007C000F0E080818E7F808391DC892B29F120915C
:1007D0009F013091A00181E090E0232B11F080E097
:1007E00090E09093A00180939F0180919F01909150
:1007F000A001892B49F0E2E6F0E0808184608083EB
:1008000080818D7F808308C0E2E6F0E08081826095
:10081000808380818B7F8083FF91EF91BF91AF9127
:100820009F918F917F916F915F914F913F912F9108
:10083000FF90EF90DF90CF900F900BBE0F900FBE08
:100840000F901F90189586E082BF87E0809361002B
:10085000E2E6F0E080818260808383B7846083BFBA
:1008600087B7816087BF0895CF93DF9300D01F9231
:10087000CDB7DEB7BCDDB4DD35DC39D1FAD180E0EF
:1008800091E09093760280937502DDDF7894109268
:100890009E0110929D011092C3011092C20180919D
:1008A0009D0190919E01009719F00197B9F02EC01B
:1008B000CE010196BCD02A818B8190E034E6239F43
:1008C000800D911D11249FDC11DC892BF9F081E052
:1008D00090E090939E0180939D0118C08091C20189
:1008E0009091C3018130910539F08230910531F04A
:1008F000892B29F466D003C057D001C07AD0F6DB2B
:10090000892B21F010929E0110929D0103D1C1D13B
:10091000C6CF8091B9018F5F8093B901843678F199
:100920001092B9018091BA019091BB010196909308
:10093000BB018093BA01CC9714F11092BB011092C5
:10094000BA018091BC019091BD0101969093BD01C7
:100950008093BC01CC979CF01092BD011092BC0119
:100960008091BE019091BF0101969093BF01809349
:10097000BE01489724F01092BF011092BE018091F1
:10098000BC019091BD0144E6489F9001499F300D04
:1009900011248091BA019091BB01820F931F909313
:1009A000C1018093C00108958091C0019091C1015F
:1009B0002ADCCBDB892B21F01092C3011092C201FB
:1009C00008958091C0019091C1011DDCBEDB892B8F
:1009D00031F081E090E09093C3018093C201E4DBA9
:1009E000892B31F082E090E09093C3018093C201A3
:1009F00008951092C1011092C0011092C30110928B
:100A0000C2011092BF011092BE011092BD0110925E
:100A1000BC011092BB011092BA011092B90180E0A2
:100A200090E0F1DB1092C3011092C2010895209171
:100A3000C4013091C5014091C601FC01208331837E
:100A400042830895E4ECF1E082818F5F82838C33EE
:100A500070F0128281818F5F81838C3340F011822C
:100A600080818F5F8083883110F01092C4010895D7
:100A70001F920F920FB60F9211240BB60F922F9365
:100A80003F934F935F938F93EF93FF938CB18D3090
:100A900011F08A3079F4E091C701F091C801E15F6B
:100AA000FD4F10821092C8011092C70181E080931F
:100AB000C9010FC02091C7013091C801A9014F5F42
:100AC0005F4F5093C8014093C701F901E15FFD4FAB
:100AD0008083FF91EF918F915F914F913F912F9183
:100AE0000F900BBE0F900FBE0F901F901895109295
:100AF00090008FEC89B98BB182608BB9E5E9F0E0A9
:100B000080818660808388E98AB908955D9BFECFE5
:100B10008CB908958091C901882309F491C010927D
:100B2000C9018FE092E0DFD147E050E068E171E079
:100B30008FE092E0CAD1892B11F48FEF8BBB48E094
:100B400050E061E271E08FE092E0BFD1892B09F4BF
:100B50001BBA44E050E06BE271E08FE092E0B5D167
:100B6000892B09F41BBA10929A01109299014BE05B
:100B700050E061E371E08FE092E0A7D1892B31F47E
:100B800081E090E090939A01809399014DE050E0CC
:100B90006EE371E08FE092E098D1892B31F482E02E
:100BA00090E090939A01809399014EE050E06DE4BB
:100BB00071E08FE092E089D1892B31F483E090E0FD
:100BC00090939A018093990141E150E06DE571E0C5
:100BD0008FE092E07AD1892B31F484E090E0909319
:100BE0009A018093990142E150E060E771E08FE063
:100BF00092E06BD1892B31F485E090E090939A01DB
:100C00008093990144E050E064E871E08FE092E065
:100C10005CD1892B31F486E090E090939A01809327
:100C2000990148E050E06AE871E08FE092E04DD130
:100C3000892B31F487E090E090939A018093990199
:100C4000E0919901F0919A013197E730F10580F434
:100C5000EA5BFF4F22C1CECB0895DDCB089501CCD6
:100C6000089525CC089548CC08956BCC089599CC6F
:100C70000895EAE9F0E0808188698083EBE9F0E09B
:100C8000808182608083109298008FEC809399001D
:100C900008958091CA01882309F4BFC01092CA0147
:100CA0008BEC91E020D147E050E068E171E08BEC03
:100CB00091E00BD1892B11F48FEF8BBB48E050E012
:100CC00061E271E08BEC91E000D1892B09F41BBA51
:100CD00044E050E06BE271E08BEC91E0F6D0892BC0
:100CE00009F41BBA1092990110929A0110929B017B
:100CF00010929C014BE050E061E371E08BEC91E0DD
:100D0000E4D0892B61F481E090E0A0E0B0E0809332
:100D1000990190939A01A0939B01B0939C014DE09F
:100D200050E06EE371E08BEC91E0CFD0892B61F461
:100D300082E090E0A0E0B0E08093990190939A0166
:100D4000A0939B01B0939C014EE050E06DE471E0F4
:100D50008BEC91E0BAD0892B61F483E090E0A0E0C5
:100D6000B0E08093990190939A01A0939B01B09376
:100D70009C0141E150E06DE571E08BEC91E0A5D084
:100D8000892B61F484E090E0A0E0B0E080939901C9
:100D900090939A01A0939B01B0939C0142E150E093
:100DA00060E771E08BEC91E090D0892B61F485E0F5
:100DB00090E0A0E0B0E08093990190939A01A09315
:100DC0009B01B0939C0144E050E064E871E08BEC3F
:100DD00091E07BD0892B61F486E090E0A0E0B0E068
:100DE0008093990190939A01A0939B01B0939C01E9
:100DF00048E050E06AE871E08BEC91E066D0892B26
:100E000061F487E090E0A0E0B0E0809399019093D6
:100E10009A01A0939B01B0939C01809199019091BC
:100E20009A01A0919B01B0919C01FC013197E730A0
:100E3000F10580F4E35BFF4F30C0DCCA0895EBCAD4
:100E400008950FCB089533CB089556CB089579CBF1
:100E50000895A7CB0895A1E21A2EAA1BBB1BFD0182
:100E60000DC0AA1FBB1FEE1FFF1FA217B307E40789
:100E7000F50720F0A21BB30BE40BF50B661F771FE1
:100E8000881F991F1A9469F76095709580959095C1
:100E90009B01AC01BD01CF010895EE0FFF1F00249F
:100EA000001C0BBE0790F691E02D0994A29FB001A3
:100EB000B39FC001A39F700D811D1124911DB29F8E
:100EC000700D811D1124911D0895FB01DC0141501D
:100ED000504030F08D910190801919F40020B9F73D
:100EE000881B990B08950F931F93CF93DF93E09185
:100EF0007502F0917602238121FF1BC08C01D0E0A6
:100F0000C0E0F80181918F016091750270917602C5
:100F1000DB011896ED91FC911997882331F0099522
:100F2000892B79F3DFEFCFEFECCF8AE00995892B9E
:100F300019F08FEF9FEF02C08D2F9C2FDF91CF9183
:0A0F40001F910F910895F894FFCF60
:100F4A000000000200000000860500000000C0F951
:100F5A00A4B0999282D880986C6564616C6C6F6E4B
:100F6A00006C6564616C6C6F6666007265736574AB
:100F7A00006C6564616C6C746F67676C650073689C
:100F8A006966746C6566746C65646F6E0073686913
:100F9A00667472696768746C65646F6E00736869F9
:100FAA0066746C656674686F6C646C65646F6E00F9
:100FBA0073686966747269676874686F6C646C6573
:100FCA00646F6E00665F6F666600666C6F77657247
:040FDA005F6F6E00D7
:00000001FF
