S00D000044485431312E73726563D5
S113000045C0000060C000005EC000005CC000008D
S11300105AC0000058C0000056C0000054C0000080
S113002052C0000050C000004EC000004CC0000090
S11300304AC0000048C0000046C0000044C00000A0
S1130040E7C0000040C000002FC100003CC0000019
S11300503AC0000038C0000036C0000034C00000C0
S113006032C0000030C000002EC000002CC00000D0
S11300702AC0000028C0000026C0000024C00000E0
S113008022C0000020C000001EC0000011241FBEBA
S1130090CFEFD0E1DEBFCDBF11E0A0E0B1E0E0E3FF
S11300A0F9E000E00BBF02C007900D92AC33B1073A
S11300B0D9F721E0ACE3B1E001C01D92A939B20740
S11300C0E1F7E6D033C49CCF85B38E7F85BB2FEF99
S11300D089EF90E0215080409040E1F700C000009B
S11300E085B3816085BB25E22A95F1F70000089568
S11300F084B38E7F84BB85B38E7F85BB089584B320
S1130100816084BB85B3816085BB089520E030E0C5
S113011080E00FC093B39923E9F395ED9A95F1F735
S11301200000880F9899816093B39130E9F32F5FB1
S11301303F4F2830310574F3089583B38130E9F3D8
S113014083B38823E9F383B38130E9F30895EF920D
S1130150FF920F931F93CF93DF9380913C01909173
S11301603D01892B09F43DC010923D0110923C01E0
S1130170ABDFBEDFE2DFCADF182FC8DF082FC6DF20
S1130180F82EC4DFE82EC12FC00FCF0DC80FBEDF7D
S1130190D82FB5DFCD1322C01F92EF921F92FF928A
S11301A08EE091E09F938F93D1D01F920F931F9273
S11301B01F938AE191E09F938F93C8D01F92DF939E
S11301C086E291E09F938F93C1D08DB79EB74096FE
S11301D00FB6F8949EBF0FBE8DBF03C08FE291E0AF
S11301E0C8D0DF91CF911F910F91FF90EF900895A8
S11301F084B3816084BB85B3816085BB2FEF8BE7BB
S113020092E9215080409040E1F700C00000089539
S11302101F920F920FB60F9211242F938F939F93D7
S113022086E082BF80913E0190913F0101969093B8
S11302303F0180933E0180913E0190913F01803DBA
S113024097406CF010923F0110923E0180913C0166
S113025090913D01019690933D0180933C019F91C3
S11302608F912F910F900FBE0F901F90189586E0DD
S113027082BF87E080936100E2E6F0E080818260E3
S1130280808383B7846083BF87B7816087BF089505
S11302904AD0EDDFADDF789480E091E09093960151
S11302A08093950154DFFECF1F920F920FB60F92E9
S11302B011240BB60F922F933F934F935F938F9319
S11302C0EF93FF938CB18D3011F08A3079F4E09183
S11302D04001F0914101ED5BFE4F1082109241010B
S11302E01092400181E0809342010FC020914001AF
S11302F030914101A9014F5F5F4F509341014093F9
S11303004001F901ED5BFE4F8083FF91EF918F91E6
S11303105F914F913F912F910F900BBE0F900FBEA5
S11303200F901F901895109290008FEC89B98BB1A3
S113033082608BB9E5E9F0E080818660808388E99A
S11303408AB908955D9BFECF8CB90895CF93DF934E
S1130350CDB7DEB7AE014B5F5F4FFA01619171918A
S1130360AF01809195019091960133D0DF91CF91A7
S113037008950F931F93CF93DF93E0919501F0912C
S11303809601238121FF1BC08C01D0E0C0E0F8015D
S113039081918F016091950170919601DB0118960E
S11303A0ED91FC911997882331F00995892B79F304
S11303B0DFEFCFEFECCF8AE00995892B19F08FEFAF
S11303C09FEF02C08D2F9C2FDF91CF911F910F9132
S11303D008952F923F924F925F926F927F928F92E5
S11303E09F92AF92BF92CF92DF92EF92FF920F93C0
S11303F01F93CF93DF93CDB7DEB72B970FB6F89447
S1130400DEBF0FBECDBF6C017B018A01FC011782E8
S11304101682838181FFBFC1CE0101963C01F601A2
S11304209381F70193FD859193FF81917F01882347
S113043009F4ADC1853239F493FD859193FF81911F
S11304407F01853221F4B60190E0D6D1E8CF912C1A
S1130450212C312CFFE1F315D8F08B3279F038F4EC
S1130460803279F08332A1F4232D20611DC08D32B6
S113047061F0803369F4232D216016C0832D8260DE
S1130480382EE32DE4603E2E2AC0F32DF8601DC003
S113049037FC2DC020ED280F2A3040F08E32B9F4FD
S11304A036FC75C1232D2064322E19C036FE06C0D9
S11304B08AE0989E200D1124922E11C0EAE02E9E0F
S11304C0200D1124222EF32DF0623F2E08C08C360D
S11304D021F4832D8068382E02C0883641F4F70158
S11304E093FD859193FF81917F018111B3CF982F63
S11304F09F7D9554933028F40C5F1F4F9FE399839D
S11305000DC0833631F0833771F0833509F055C05F
S113051020C0F801808189830E5F1F4F8824839453
S1130520912C530112C02801F2E04F0E511CF80126
S1130530A080B18036FE03C0692D70E002C06FEF69
S11305407FEFC5014ED14C018201F32DFF773F2E81
S113055015C0280122E0420E511CF801A080B18090
S113056036FE03C0692D70E002C06FEF7FEFC50156
S11305702DD14C01F32DF0683F2E820133FC19C0BC
S1130580822D90E088169906A0F4B60180E290E0EE
S113059033D12A94F5CFF50137FC859137FE81914B
S11305A05F01B60190E028D121102A9421E0821A3B
S11305B091088114910479F7E1C0843611F08936E9
S11305C039F5F80137FE07C060817181828193811A
S11305D00C5F1F4F08C060817181072E000C880BCF
S11305E0990B0E5F1F4FF32DFF763F2E97FF09C027
S11305F090958095709561957F4F8F4F9F4FF068D0
S11306003F2E2AE030E0A30133D1882E861844C05F
S1130610853731F4232D2F7EB22E2AE030E025C019
S1130620932D997FB92E8F36C1F018F4883579F05F
S1130630AEC0803719F0883721F0A9C0E92FE061F6
S1130640BE2EB4FE0DC0FB2DF460BF2E09C034FED7
S11306500AC0292F2660B22E06C028E030E005C06B
S113066020E130E002C020E132E0F801B7FE07C02B
S113067060817181828193810C5F1F4F06C060810C
S1130680718180E090E00E5F1F4FA301F1D0882EAE
S11306908618FB2DFF773F2E36FE0DC0232D2E7FAF
S11306A0A22E891458F434FE0BC032FC09C0832DE9
S11306B08E7EA82E05C0B82CA32C03C0B82C01C074
S11306C0B92CA4FE0FC0FE01E80DF11D808180331A
S11306D021F49A2D997EA92E09C0A2FE06C0B394D6
S11306E0B39404C08A2D867809F0B394A3FC10C097
S11306F0A0FE06C0B21480F4280C922C9B180DC0E6
S1130700B21458F4B60180E290E076D0B394F8CFF6
S1130710B21418F42B1802C0982C212CA4FE0FC07C
S1130720B60180E390E068D0A2FE16C0A1FC03C02D
S113073088E790E002C088E590E0B6010CC08A2DFD
S1130740867851F0A1FE02C08BE201C080E2A7FCD2
S11307508DE2B60190E050D0891430F4B60180E304
S113076090E04AD09A94F8CF8A94F301E80DF11DF1
S11307708081B60190E040D08110F6CF222009F4A8
S11307804ECEB60180E290E037D02A94F7CFF6013E
S11307908681978102C08FEF9FEF2B960FB6F89456
S11307A0DEBF0FBECDBFDF91CF911F910F91FF90A0
S11307B0EF90DF90CF90BF90AF909F908F907F90FD
S11307C06F905F904F903F902F900895FC0105909B
S11307D0615070400110D8F7809590958E0F9F1F3F
S11307E00895FC016150704001900110D8F7809584
S11307F090958E0F9F1F08950F931F93CF93DF93B0
S1130800FB01238121FD03C08FEF9FEF2CC022FF4A
S113081016C046815781248135814217530744F419
S1130820A081B1819D012F5F3F4F318320838C9341
S1130830268137812F5F3F4F3783268314C08B0176
S1130840EC01FB010084F185E02D0995892BE1F68B
S1130850D80116968D919C911797019617969C93A3
S11308608E931697CE01DF91CF911F910F9108952A
S1130870FA01AA27283051F1203181F1E8946F93CD
S11308806E7F6E5F7F4F8F4F9F4FAF4FB1E03ED073
S1130890B4E03CD0670F781F891F9A1FA11D680F11
S11308A0791F8A1F911DA11D6A0F711D811D911D44
S11308B0A11D20D009F468943F912AE0269F1124B9
S11308C03019305D3193DEF6CF010895462F47701D
S11308D0405D4193B3E00FD0C9F7F6CF462F4F7078
S11308E0405D4A3318F0495D31FD4052419302D0D6
S11308F0A9F7EACFB4E0A69597958795779567957C
S1130900BA95C9F700976105710508959B01AC017B
S11309100A2E06945795479537952795BA95C9F7A2
S1130920620F731F841F951FA01D0895F894FFCFB5
S11309300000000200000000A201000000005B545F
S11309406D705D25642E25640A005B5765745D2512
S1130950642E25640A005B63686B5D25640A005B92
S10F096064617461206572726F725D0046
S9030000FC
