:1000000053C000006FC000006DC000006BC0000056
:1000100069C000000C94010965C0000063C00000C5
:1000200061C000005FC000005DC000005BC0000058
:1000300059C0000057C0000055C0000053C0000068
:1000400014C400004FC00000E9C600004BC000000F
:1000500049C0000047C0000045C0000043C0000088
:1000600041C000003FC000003DC000003BC0000098
:1000700039C0000037C0000035C0000033C00000A8
:1000800031C000002FC000002DC00000010803088F
:100090000508070809080B080D08F308F508F70814
:1000A000F908FB08FD08FF0811241FBECFEFD0E1BF
:1000B000DEBFCDBF11E0A0E0B1E0EAE1FDE100E08C
:1000C0000BBF02C007900D92A03DB107D9F722E007
:1000D000A0EDB1E001C01D92AF3EB207E1F726D519
:1000E0000C948B0E8DCF81B38F7081BB089580B33C
:1000F00080719091D201911111C0882379F02FEF76
:100100008DEE92E0215080409040E1F700C0000069
:1001100081E08093D20180E090E00895913081F4F5
:10012000811111C01092D2012FEF86E791E021508A
:1001300080409040E1F700C0000081E090E0089529
:1001400080E090E0089580E090E0089580B38072B0
:100150009091D101911111C0882379F02FEF8DEE8C
:1001600092E0215080409040E1F700C0000081E023
:100170008093D10180E090E00895913081F4811165
:1001800011C01092D1012FEF86E791E021508040FD
:100190009040E1F700C0000081E090E0089580E029
:1001A00090E0089580E090E0089580B3807490918D
:1001B000D001911111C0882379F02FEF8DEE92E0DC
:1001C000215080409040E1F700C0000081E0809322
:1001D000D00180E090E00895913081F4811111C048
:1001E0001092D0012FEF86E791E02150804090409F
:1001F000E1F700C0000081E090E0089580E090E029
:10020000089580E090E0089590934E0280934D020F
:10021000089580914D0290914E020895CF93DF93FF
:10022000CDB7DEB72A970FB6F894DEBF0FBECDBFAD
:100230008AE0EEE0F1E0DE01119601900D928A95E0
:10024000E1F7E7DFAC018091D3019091D4018130D7
:10025000910569F140F08230910509F456C0039789
:1002600009F483C0B1C080E888BB9A01ADECBCEC56
:100270000E944F0B969587959695879596958795AD
:100280009C01220F331F880F991F880F991F880F19
:10029000991F820F931F9A01281B390BE1E0F0E0B0
:1002A000EC0FFD1FE20FF31F808185BB8DC080E442
:1002B00088BB9A01ADECBCEC0E944F0BAC0156958B
:1002C000479556954795569547959A010E944F0B2D
:1002D0009695879596958795969587959C01220F7B
:1002E000331F880F991F880F991F880F991F820F3E
:1002F000931F9A01281B390BE1E0F0E0EC0FFD1F82
:10030000E20FF31F808185BB5FC080E288BB9A014A
:100310003695279536952795ABE7B4E10E944F0BAC
:10032000AC01569547959A01ADECBCEC0E944F0B81
:100330009695879596958795969587959C01220F1A
:10034000331F880F991F880F991F880F991F820FDD
:10035000931F9A01281B390BE1E0F0E0EC0FFD1F21
:10036000E20FF31F808185BB2FC080E188BB9A011B
:10037000369527953695279536952795A5ECB0E2C5
:100380000E944F0BAC01529542954F7045275F700C
:1003900045279A01ABEABAEA0E944F0B96958795DA
:1003A000969587959C01220F331F820F931F880F0C
:1003B000991F9A01281B390BE1E0F0E0EC0FFD1FBB
:1003C000E20FF31F808185BB8091D3019091D4010E
:1003D0000196837099279093D4018093D3012A9634
:1003E0000FB6F894DEBF0FBECDBFDF91CF91089559
:1003F0008FEF84BB87B3806F87BB15BA0895809356
:100400007000089584EA80937400809174008823BA
:10041000E4F708958093730084E8809374008091DA
:1004200074008823E4F7089584E9809374000895A4
:10043000CF93DF93D82FC62FE5DF8D2FEBDF8C2FE7
:10044000E9DFF2DFDF91CF9108951F93CF93DF9320
:1004500000D000D0CDB7DEB7282F207F30E1839FBA
:10046000C0011124922F9D60998329602A83982FBF
:100470009D609B8389608C8310E00AC0E1E0F0E01E
:10048000EC0FFD1FE10FF11D60818EE4D1DF1F5FD6
:100490001430A0F30F900F900F900F90DF91CF9139
:1004A0001F9108951F93CF93DF9300D000D0CDB755
:1004B000DEB7282F207F30E1839FC0011124922FC7
:1004C0009C60998328602A83982F9C609B83886016
:1004D0008C8310E00AC0E1E0F0E0EC0FFD1FE10FBB
:1004E000F11D60818EE4A4DF1F5F1430A0F30F9034
:1004F0000F900F900F90DF91CF911F91089580E1A1
:1005000097E27DDF2FEF80E792E02150804090401E
:10051000E1F700C0000083E3C5DF82E3C3DF88E2C8
:10052000C1DF8CE0BFDF86E0BDDF81E0BBDF8FE3B2
:100530009CE90197F1F700C0000008950F931F9305
:10054000CF938C01C0E002C080DFCF5FF801EC0FD9
:10055000F11D80818111F8CFCF911F910F910895E6
:100560006F70817090E4899F600D1124862F8058F0
:1005700099CF0895CF93DF93EA01F2DFCE01DEDF5A
:10058000DF91CF9108958FEF8ABB08958091E701A5
:100590009091E801A091E901B091EA01892B8A2BA1
:1005A0008B2B19F08FEF8BBB08951BBA089520E0B9
:1005B00030E01FC08091E7019091E801A091E9012E
:1005C000B091EA01892B8A2B8B2B99F081E090E086
:1005D000022E02C0880F991F0A94E2F78BBB2F5F8F
:1005E0003F4F1092E7011092E8011092E90110923A
:1005F000EA0128303105F4F2089520E030E01FC010
:100600008091E7019091E801A091E901B091EA01A0
:10061000892B8A2B8B2B99F080E890E0022E02C068
:10062000959587950A94E2F78BBB2F5F3F4F109209
:10063000E7011092E8011092E9011092EA012830D6
:100640003105F4F2089527E030E01FC08091E70102
:100650009091E801A091E901B091EA01892B8A2BE0
:100660008B2B99F08FEF90E0022E02C09595879525
:100670000A94E2F78BBB215031091092E7011092E6
:10068000E8011092E9011092EA013323FCF6089583
:1006900027E030E01FC08091E7019091E801A09130
:1006A000E901B091EA01892B8A2B8B2B99F08FEF0E
:1006B00090E0022E02C0880F991F0A94E2F78BBBCC
:1006C000215031091092E7011092E8011092E901DE
:1006D0001092EA013323FCF6089520E030E029C0AF
:1006E0008091E7019091E801A091E901B091EA01C0
:1006F000892B8A2B8B2BE9F080E890E0AC01022E4D
:1007000002C0559547950A94E2F781E090E0022EE9
:1007100002C0880F991F0A94E2F7842B8BBB2F5FCE
:100720003F4F1092E7011092E8011092E9011092F8
:10073000EA0124303105A4F2089520E030E029C018
:100740008091E7019091E801A091E901B091EA015F
:10075000892B8A2B8B2BE9F080E190E0AC01022EF3
:1007600002C0440F551F0A94E2F788E090E0022E81
:1007700002C0959587950A94E2F7842B8BBB2F5F77
:100780003F4F1092E7011092E8011092E901109298
:10079000EA0124303105A4F208958091E702909196
:1007A000E8026AE370E03DD7CB01770FAA0BBB0BE1
:1007B00082309105A105B10519F48FEF8BBB089527
:1007C00083309105A105B10519F48FE78BBB08951E
:1007D00084309105A105B10519F48FE38BBB089511
:1007E00085309105A105B10519F48FE18BBB089502
:1007F00086309105A105B10519F48FE08BBB0895F2
:1008000087309105A105B10519F487E08BBB0895E8
:1008100088309105A105B10519F483E08BBB0895DB
:1008200089309105A105B10519F481E08BBB0895CC
:100830000A97A105B105C0F08091E7019091E80108
:10084000A091E901B091EA01892B8A2B8B2B59F0F9
:100850001092E7011092E8011092E9011092EA016A
:100860008FEF8BBB08951BBA08951F920F920FB69E
:100870000F9211240BB60F92CF92DF92EF92FF925C
:100880002F933F934F935F936F937F938F939F9398
:10089000AF93BF93EF93FF9386E082BFC090F701C1
:1008A000D090F801E090F901F090FA012FEFC21A10
:1008B000D20AE20AF20AC092F701D092F801E0925D
:1008C000F901F092FA018091EF019091F001A0916D
:1008D000F101B091F201BC01CD016F5F7F4F8F4FED
:1008E0009F4F6093EF017093F0018093F10190931B
:1008F000F2012091E5013091E6012F5F3F4F3093E7
:10090000E6012093E5012091E3013091E4012F5F9E
:100910003F4F3093E4012093E3012091E1013091B6
:10092000E2012F5F3F4F3093E2012093E10128EE77
:1009300033E040E050E02093EB013093EC01409332
:10094000ED015093EE0180D6672B682B692B99F44B
:100950008091E7019091E801A091E901B091EA014D
:100960000196A11DB11D8093E7019093E801A0932A
:10097000E901B093EA0188EEC81683E0D806E104E5
:10098000F104E0F01092F7011092F8011092F901D1
:100990001092FA018091F3019091F401A091F50178
:1009A000B091F6010196A11DB11D8093F3019093C2
:1009B000F401A093F501B093F6011AD28091F701EA
:1009C0009091F801A091F901B091FA0183709927F3
:1009D000AA27BB27892B8A2B8B2B09F41FDC80913C
:1009E000040290910502019709F469D1DEDB892B9D
:1009F00051F0E6E0F2E0128211821082E2E6F0E0CD
:100A00008081897F80838091DF019091E001019650
:100A10009093E0018093DF018091DF019091E001EC
:100A2000843F91401CF11092E0011092DF0120916F
:100A3000DD013091DE0181E090E0232B11F080E0B8
:100A400090E09093DE018093DD018091DD01909133
:100A5000DE01892B31F0E2E6F0E080818160808365
:100A600005C0E2E6F0E080818E7F808340DB892B49
:100A700029F12091DB013091DC0181E090E0232B12
:100A800011F080E090E09093DC018093DB01809195
:100A9000DB019091DC01892B49F0E2E6F0E08081F6
:100AA0008460808380818D7F808308C0E2E6F0E0EF
:100AB00080818260808380818B7F8083FF91EF9132
:100AC000BF91AF919F918F917F916F915F914F9166
:100AD0003F912F91FF90EF90DF90CF900F900BBE42
:100AE0000F900FBE0F901F90189586E082BF87E091
:100AF00080936100E2E6F0E080818260808383B7CA
:100B0000846083BF87B7816087BF08958091E101CA
:100B10009091E201893E934044F01092E2011092DC
:100B2000E10185EB92E0ECD5DAC30895CF93DF9332
:100B3000CDB7DEB7C355D1090FB6F894DEBF0FBEEF
:100B4000CDBF21DD55DCCFDAA8D169D2D8DC80E079
:100B500091E09093EC028093EB02C7DFAED37894E0
:100B60001092DA011092D90110920502109204023B
:100B70008091D9019091DA01009719F00197B9F0AD
:100B80002EC0CE01019629D12A818B8190E034E6D6
:100B9000239F800D911D112437DBA9DA892BF9F0F1
:100BA00081E090E09093DA018093D90118C08091A0
:100BB0000402909105028130910539F0823091054F
:100BC00031F0892B29F4D3D003C0C4D001C0E7D0C1
:100BD0008EDA892B21F01092DA011092D901DDDD35
:100BE0006FD12DD293DF8091E5019091E601893E8E
:100BF000934054F11092E6011092E50148E151E072
:100C000060E070E080E090E0B5DC8091E7029091D8
:100C1000E8026AE370E005D57F936F9389E291E083
:100C20009F938F938E010C5F1F4F1F930F9398D547
:100C3000A80160E070E080E090E09CDC0F900F90F5
:100C40000F900F900F900F908091E3019091E4012D
:100C5000853F91400CF48CCF1092E4011092E30197
:100C600048E151E060E070E081E090E083DC809159
:100C7000FD018F938091FC018F938091FF018F93F1
:100C80008091FE018F93809101028F9380910002E9
:100C90008F9380E391E09F938F938E01045D1F4FAC
:100CA0001F930F935DD5A80160E070E081E090E0B4
:100CB00061DC0FB6F894DEBF0FBECDBF59CF809177
:100CC000FB018F5F8093FB01843678F11092FB016A
:100CD0008091FC019091FD0101969093FD0180931C
:100CE000FC01CC9714F11092FD011092FC0180914F
:100CF000FE019091FF0101969093FF018093FE0108
:100D0000CC979CF01092FF011092FE01809100029E
:100D100090910102019690930102809300024897FE
:100D200024F010920102109200028091FE01909135
:100D3000FF0144E6489F9001499F300D11248091A6
:100D4000FC019091FD01820F931F90930302809309
:100D500002020895809102029091030255DAF6D9B9
:100D6000892B21F0109205021092040208958091BF
:100D700002029091030248DAE9D9892B31F081E02F
:100D800090E090930502809304020FDA892B31F0F2
:100D900082E090E0909305028093040208951092FF
:100DA00003021092020210920502109204021092A5
:100DB0000102109200021092FF011092FE011092A7
:100DC000FD011092FC011092FB0180E090E01CDA22
:100DD00010920502109204020895209106023091AB
:100DE000070240910802FC01208331834283089569
:100DF000E6E0F2E082818F5F82838C3370F01282B2
:100E000081818F5F81838C3340F0118280818F5F7D
:100E10008083883110F01092060208951F920F927D
:100E20000FB60F9211240BB60F922F933F934F934F
:100E30005F938F93EF93FF938CB18D3011F08A30D5
:100E400079F4E0910902F0910A02EF5AFD4F108205
:100E500010920A021092090281E080930B020FC0E7
:100E60002091090230910A02A9014F5F5F4F509310
:100E70000A0240930902F901EF5AFD4F8083FF9166
:100E8000EF918F915F914F913F912F910F900BBEFA
:100E90000F900FBE0F901F901895109290008FEC3E
:100EA00089B98BB182608BB9E5E9F0E08081866019
:100EB000808388E98AB908955D9BFECF8CB9089537
:100EC00080910B02882309F491C010920B0281E5F6
:100ED00092E016D447E050E063E471E081E592E0EF
:100EE00001D4892B11F48FEF8BBB48E050E06CE408
:100EF00071E081E592E0F6D3892B09F41BBA44E056
:100F000050E066E571E081E592E0ECD3892B09F4CD
:100F10001BBA1092D6011092D5014BE050E06CE55F
:100F200071E081E592E0DED3892B31F481E090E03D
:100F30009093D6018093D5014DE050E069E671E0D1
:100F400081E592E0CFD3892B31F482E090E0909359
:100F5000D6018093D5014EE050E068E771E081E56D
:100F600092E0C0D3892B31F483E090E09093D601D6
:100F70008093D50141E150E068E871E081E592E0BD
:100F8000B1D3892B31F484E090E09093D601809323
:100F9000D50142E150E06BE971E081E592E0A2D336
:100FA000892B31F485E090E09093D6018093D501B0
:100FB00044E050E06FEA71E081E592E093D3892B41
:100FC00031F486E090E09093D6018093D50148E01B
:100FD00050E065EB71E081E592E084D3892B31F438
:100FE00087E090E09093D6018093D501E091D50100
:100FF000F091D6013197E730F10580F4EA5BFF4FBD
:1010000045C3C4CA0895D3CA0895F7CA08951BCB2F
:1010100008953ECB089561CB08958FCB0895EAE9FA
:10102000F0E0808188698083EBE9F0E08081826074
:101030008083109298008FEC80939900089580919E
:101040000C02882309F4BFC010920C028DE092E0DC
:1010500057D347E050E063E471E08DE092E042D383
:10106000892B11F48FEF8BBB48E050E06CE471E00A
:101070008DE092E037D3892B09F41BBA44E050E0AD
:1010800066E571E08DE092E02DD3892B09F41BBA5F
:101090001092D5011092D6011092D7011092D8016A
:1010A0004BE050E06CE571E08DE092E01BD3892BC2
:1010B00061F481E090E0A0E0B0E08093D5019093EE
:1010C000D601A093D701B093D8014DE050E069E676
:1010D00071E08DE092E006D3892B61F482E090E02C
:1010E000A0E0B0E08093D5019093D601A093D70102
:1010F000B093D8014EE050E068E771E08DE092E0F7
:10110000F1D2892B61F483E090E0A0E0B0E080931D
:10111000D5019093D601A093D701B093D80141E1B6
:1011200050E068E871E08DE092E0DCD2892B61F458
:1011300084E090E0A0E0B0E08093D5019093D601E8
:10114000A093D701B093D80142E150E06BE971E080
:101150008DE092E0C7D2892B61F485E090E0A0E0B9
:10116000B0E08093D5019093D601A093D701B093BE
:10117000D80144E050E06FEA71E08DE092E0B2D235
:10118000892B61F486E090E0A0E0B0E08093D50187
:101190009093D601A093D701B093D80148E050E0D6
:1011A00065EB71E08DE092E09DD2892B61F487E0E0
:1011B00090E0A0E0B0E08093D5019093D601A09399
:1011C000D701B093D8018091D5019091D601A0911B
:1011D000D701B091D801FC013197E730F10580F4D7
:1011E000E35BFF4F53C2D2C90895E1C9089505CA10
:1011F000089529CA08954CCA08956FCA08959DCAD2
:1012000008951F920F920FB60F9211240BB60F92F2
:101210002F933F934F935F936F937F938F939F93FE
:10122000AF93BF93EF93FF930C9B03C01DBC1CBCFB
:1012300031C06CB57DB580E090E002D120E034E2B1
:1012400044E759E48BD120E030E040E854E486D113
:1012500020E034E244E75BE45AD0C1D07093E80266
:101260006093E7028091E7029091E8026AE370E000
:10127000D8D17F936F938FEB91E09F938F9385EB02
:1012800092E09F938F936CD20F900F900F900F90DE
:101290000F900F90FF91EF91BF91AF919F918F9120
:1012A0007F916F915F914F913F912F910F900BBE66
:1012B0000F900FBE0F901F901895E4E6F0E080812C
:1012C0008061808382B18F7E82B98AB781608ABF54
:1012D0008EB585608EBD89B7806189BF0895E5E6CA
:1012E000F0E080818F7E80838FE99FE00197F1F7A6
:1012F00000C000008081806180838FE59AEE0197B5
:10130000F1F700C0000080818F7E808308950CD0AB
:10131000EBC0E3D040F0DAD030F021F45F3F19F0B9
:10132000CCC0511115C1CFC0F0D098F39923C9F3A7
:101330005523B1F3951B550BBB27AA2762177307DB
:10134000840738F09F5F5F4F220F331F441FAA1F8F
:10135000A9F333D00E2E3AF0E0E830D0915050404F
:10136000E695001CCAF729D0FE2F27D0660F771FFD
:10137000881FBB1F261737074807AB07B0E809F0DF
:10138000BB0B802DBF01FF2793585F4F2AF09E3F74
:10139000510568F092C0DCC05F3FECF3983EDCF38F
:1013A000869577956795B795F7959F5FC9F7880FED
:1013B000911D9695879597F90895E1E0660F771F3F
:1013C000881FBB1F621773078407BA0720F0621BD0
:1013D000730B840BBA0BEE1F88F7E095089504D0C9
:1013E0006894B111B5C0089598D088F09F5790F0D7
:1013F000B92F9927B751A0F0D1F0660F771F881F3A
:10140000991F1AF0BA95C9F712C0B13081F09FD078
:10141000B1E008959CC0672F782F8827B85F39F016
:10142000B93FCCF3869577956795B395D9F73EF498
:1014300090958095709561957F4F8F4F9F4F089540
:10144000E89409C097FB3EF490958095709561955E
:101450007F4F8F4F9F4F9923A9F0F92F96E9BB2714
:101460009395F695879577956795B795F111F8CF90
:10147000FAF4BB0F11F460FF1BC06F5F7F4F8F4FFB
:101480009F4F16C0882311F096E911C0772321F0F1
:101490009EE8872F762F05C0662371F096E8862F89
:1014A00070E060E02AF09A95660F771F881FDAF7E0
:1014B000880F9695879597F9089597F99F6780E823
:1014C00070E060E008959FEF80EC089500240A9496
:1014D0001616170618060906089500240A9412160F
:1014E0001306140605060895092E0394000C11F442
:1014F000882352F0BB0F40F4BF2B11F460FF04C0EF
:101500006F5F7F4F8F4F9F4F089557FD9058440F47
:10151000551F59F05F3F71F04795880F97FB991F52
:1015200061F09F3F79F0879508951216130614060F
:10153000551FF2CF4695F1DF08C01616170618069C
:10154000991FF1CF86957105610508940895E89477
:10155000BB2766277727CB0197F908950BD0C4CF17
:10156000B5DF28F0BADF18F0952309F0A6CFABCF8E
:101570001124EECFCADFA0F3959FD1F3950F50E071
:10158000551F629FF001729FBB27F00DB11D639F35
:10159000AA27F00DB11DAA1F649F6627B00DA11DDB
:1015A000661F829F2227B00DA11D621F739FB00D81
:1015B000A11D621F839FA00D611D221F749F3327F1
:1015C000A00D611D231F849F600D211D822F762F8A
:1015D0006A2F11249F5750408AF0E1F088234AF087
:1015E000EE0FFF1FBB1F661F771F881F91505040D3
:1015F000A9F79E3F510570F060CFAACF5F3FECF393
:10160000983EDCF3869577956795B795F795E795BE
:101610009F5FC1F7FE2B880F911D9695879597F9CF
:10162000089597FB072E16F4009406D077FD08D096
:1016300045D007FC05D03EF4909581959F4F0895C5
:10164000709561957F4F0895A1E21A2EAA1BBB1BCE
:10165000FD010DC0AA1FBB1FEE1FFF1FA217B3077E
:10166000E407F50720F0A21BB30BE40BF50B661F94
:10167000771F881F991F1A9469F760957095809558
:1016800090959B01AC01BD01CF010895EE0FFF1FA6
:101690000024001C0BBE0790F691E02D0994A29F38
:1016A000B001B39FC001A39F700D811D1124911D36
:1016B000B29F700D811D1124911D0895AA1BBB1BA3
:1016C00051E107C0AA1FBB1FA617B70710F0A61B42
:1016D000B70B881F991F5A95A9F780959095BC0163
:1016E000CD010895FB01DC014150504030F08D9157
:1016F0000190801919F40020B9F7881B990B0895FF
:101700000F931F93CF93DF93E091EB02F091EC02E4
:10171000238121FF1BC08C01D0E0C0E0F801819142
:101720008F016091EB027091EC02DB011896ED9154
:10173000FC911997882331F00995892B79F3DFEF14
:10174000CFEFECCF8AE00995892B19F08FEF9FEF4F
:1017500002C08D2F9C2FDF91CF911F910F91089583
:101760000F931F93CF93DF93CDB7DEB72E970FB6AE
:10177000F894DEBF0FBECDBF0D891E8986E08C8335
:101780001A8309838FEF9FE79E838D83AE01475EA7
:101790005F4F6F89788DCE01019610D0EF81F8856B
:1017A000E00FF11F10822E960FB6F894DEBF0FBE29
:1017B000CDBFDF91CF911F910F9108952F923F924E
:1017C0004F925F926F927F928F929F92AF92BF9251
:1017D000CF92DF92EF92FF920F931F93CF93DF93FD
:1017E000CDB7DEB72B970FB6F894DEBF0FBECDBFD7
:1017F0006C017B018A01FC0117821682838181FFC3
:10180000BFC1CE0101963C01F6019381F70193FD22
:10181000859193FF81917F01882309F4ADC18532C1
:1018200039F493FD859193FF81917F01853221F4F5
:10183000B60190E0D6D1E8CF912C212C312CFFE1DC
:10184000F315D8F08B3279F038F4803279F08332A6
:10185000A1F4232D20611DC08D3261F0803369F425
:10186000232D216016C0832D8260382EE32DE46085
:101870003E2E2AC0F32DF8601DC037FC2DC020ED90
:10188000280F2A3040F08E32B9F436FC75C1232D72
:101890002064322E19C036FE06C08AE0989E200DC4
:1018A0001124922E11C0EAE02E9E200D1124222E2A
:1018B000F32DF0623F2E08C08C3621F4832D806812
:1018C000382E02C0883641F4F70193FD859193FFCD
:1018D00081917F018111B3CF982F9F7D95549330D3
:1018E00028F40C5F1F4F9FE399830DC0833631F0BE
:1018F000833771F0833509F055C020C0F80180812D
:1019000089830E5F1F4F88248394912C530112C04A
:101910002801F2E04F0E511CF801A080B18036FE84
:1019200003C0692D70E002C06FEF7FEFC5014ED19B
:101930004C018201F32DFF773F2E15C0280122E0D4
:10194000420E511CF801A080B18036FE03C0692D03
:1019500070E002C06FEF7FEFC5012DD14C01F32D78
:10196000F0683F2E820133FC19C0822D90E088166A
:101970009906A0F4B60180E290E033D12A94F5CF25
:10198000F50137FC859137FE81915F01B60190E04A
:1019900028D121102A9421E0821A910881149104FF
:1019A00079F7E1C0843611F0893639F5F80137FE50
:1019B00007C060817181828193810C5F1F4F08C0D5
:1019C00060817181072E000C880B990B0E5F1F4FF1
:1019D000F32DFF763F2E97FF09C090958095709567
:1019E00061957F4F8F4F9F4FF0683F2E2AE030E088
:1019F000A30133D1882E861844C0853731F4232DB6
:101A00002F7EB22E2AE030E025C0932D997FB92E8B
:101A10008F36C1F018F4883579F0AEC0803719F0F0
:101A2000883721F0A9C0E92FE061BE2EB4FE0DC0B9
:101A3000FB2DF460BF2E09C034FE0AC0292F26609A
:101A4000B22E06C028E030E005C020E130E002C040
:101A500020E132E0F801B7FE07C060817181828128
:101A600093810C5F1F4F06C06081718180E090E020
:101A70000E5F1F4FA301F1D0882E8618FB2DFF7734
:101A80003F2E36FE0DC0232D2E7FA22E891458F432
:101A900034FE0BC032FC09C0832D8E7EA82E05C0FB
:101AA000B82CA32C03C0B82C01C0B92CA4FE0FC0C5
:101AB000FE01E80DF11D8081803321F49A2D997E7D
:101AC000A92E09C0A2FE06C0B394B39404C08A2D07
:101AD000867809F0B394A3FC10C0A0FE06C0B2142F
:101AE00080F4280C922C9B180DC0B21458F4B60147
:101AF00080E290E076D0B394F8CFB21418F42B18AB
:101B000002C0982C212CA4FE0FC0B60180E390E007
:101B100068D0A2FE16C0A1FC03C088E790E002C016
:101B200088E590E0B6010CC08A2D867851F0A1FEC0
:101B300002C08BE201C080E2A7FC8DE2B60190E01A
:101B400050D0891430F4B60180E390E04AD09A94E2
:101B5000F8CF8A94F301E80DF11D8081B60190E081
:101B600040D08110F6CF222009F44ECEB60180E29B
:101B700090E037D02A94F7CFF6018681978102C092
:101B80008FEF9FEF2B960FB6F894DEBF0FBECDBF41
:101B9000DF91CF911F910F91FF90EF90DF90CF9049
:101BA000BF90AF909F908F907F906F905F904F907D
:101BB0003F902F900895FC010590615070400110F6
:101BC000D8F7809590958E0F9F1F0895FC01615066
:101BD000704001900110D8F7809590958E0F9F1F4F
:101BE00008950F931F93CF93DF93FB01238121FD72
:101BF00003C08FEF9FEF2CC022FF16C04681578194
:101C0000248135814217530744F4A081B1819D019D
:101C10002F5F3F4F318320838C93268137812F5F45
:101C20003F4F3783268314C08B01EC01FB010084F6
:101C3000F185E02D0995892BE1F6D80116968D9155
:101C40009C911797019617969C938E931697CE01A9
:101C5000DF91CF911F910F910895FA01AA272830A3
:101C600051F1203181F1E8946F936E7F6E5F7F4F69
:101C70008F4F9F4FAF4FB1E03ED0B4E03CD0670FE5
:101C8000781F891F9A1FA11D680F791F8A1F911D38
:101C9000A11D6A0F711D811D911DA11D20D009F488
:101CA00068943F912AE0269F11243019305D3193CA
:101CB000DEF6CF010895462F4770405D4193B3E0B3
:101CC0000FD0C9F7F6CF462F4F70405D4A3318F05A
:101CD000495D31FD4052419302D0A9F7EACFB4E00B
:101CE000A6959795879577956795BA95C9F70097C3
:101CF0006105710508959B01AC010A2E0694579564
:101D0000479537952795BA95C9F7620F731F841FBA
:0A1D1000951FA01D0895F894FFCF61
:101D1A0000000002000000005C0700000000C0F99B
:101D2A00A4B0999282D880982020202020202020B8
:101D3A0020202020202020200020253864636D00E8
:101D4A0073746F70203A202532643A2532643A253A
:101D5A003264006C6564616C6C6F6E006C65646102
:101D6A006C6C6F6666007265736574006C6564619D
:101D7A006C6C746F67676C650073686966746C6510
:101D8A0066746C65646F6E007368696674726967FD
:101D9A0068746C65646F6E0073686966746C6566F6
:101DAA0074686F6C646C65646F6E007368696674DE
:101DBA007269676874686F6C646C65646F6E0066DC
:101DCA005F6F666600666C6F7765725F6F6E006440
:101DDA00697374616E6365203A202564636D00003F
:00000001FF
