:1000000045C0000053C0000051C000004FC00000B8
:100010004DC000004BC0000049C0000047C00000B8
:1000200045C0000043C0000041C000003FC00000C8
:100030003DC000003BC0000039C0000037C00000D8
:10004000C7C0000033C0000031C000002FC0000056
:100050002DC000002BC0000029C0000027C00000F8
:1000600025C0000023C0000021C000001FC0000008
:100070001DC000001BC0000019C0000017C0000018
:1000800015C0000013C0000011C0000011241FBEE5
:10009000CFEFD0E1DEBFCDBF21E0A0E0B1E001C0F5
:1000A0001D92A530B207E1F7CCD046C1A9CF81B3EC
:1000B0008F7081BB089580B380719091020191117E
:1000C00011C0882379F02FEF8DEE92E0215080400F
:1000D0009040E1F700C0000081E08093020180E0E1
:1000E00090E00895913081F4811111C010920201C5
:1000F0002FEF86E791E0215080409040E1F700C06B
:10010000000081E090E0089580E090E0089580E0B4
:1001100090E0089580B3807290910101911111C017
:10012000882379F02FEF8DEE92E0215080409040AF
:10013000E1F700C0000081E08093010180E090E0E1
:100140000895913081F4811111C0109201012FEFB7
:1001500086E791E0215080409040E1F700C0000028
:1001600081E090E0089580E090E0089580E090E0E4
:10017000089580B3807490910001911111C088237B
:1001800079F02FEF8DEE92E0215080409040E1F722
:1001900000C0000081E08093000180E090E00895BD
:1001A000913081F4811111C0109200012FEF86E788
:1001B00091E0215080409040E1F700C0000081E0D4
:1001C00090E0089580E090E0089580E090E0089548
:1001D0001F920F920FB60F9211248F939F9312BE0E
:1001E0008091030190910401019690930401809302
:1001F00003019F918F910F900FBE0F901F90189544
:1002000082B1886382B9ABE8B0E08C9181608C9355
:10021000EAE8F0E08081886080838C9188608C932C
:100220008081836080831092830010928200089501
:1002300081E080936100109262008FEF8ABB1BBA4D
:100240000895DEDF34DFF4DF08E010E0C0E0D0E046
:1002500032DF892BE9F0CD2B71F486E490E09093A6
:10026000830080938200E2E6F0E0808181608083F9
:10027000C1E0D0E0EDCF1092830010928200E2E660
:10028000F0E080818E7F80831BBAC0E0D0E0E0CFB9
:1002900041DF892B31F18091820090918300863E6D
:1002A000910548F086EE90E0909383008093820061
:1002B00000E010E0CDCF015011090930110548F4DC
:1002C0008FEF90E0002E02C0880F991F0A94E2F78A
:1002D0008BBBE2E8F0E0808191814496918380833A
:1002E000B7CF47DF892B09F4B3CF8091820090917B
:1002F00083008734910548F486E490E0909383006E
:100300008093820009E010E0A3CF0F5F1F4FC80168
:100310000197089748F48FEF90E0002E02C0880FF5
:10032000991F0A94E2F78BBBE2E8F0E080819181AB
:0C0330004497918380838CCFF894FFCF1A
:00000001FF
