S01700006D616B655F74696D6572305F70776D2E737265630C
S113000045C0000053C0000051C000004FC00000B4
S11300104DC000004BC0000049C0000047C00000B4
S113002045C0000043C0000041C000003FC00000C4
S11300303DC000003BC0000039C0000037C00000D4
S113004036C0000033C0000031C000002FC00000E3
S11300502DC000002BC0000029C0000027C00000F4
S113006025C0000023C0000021C000001FC0000004
S11300701DC000001BC0000019C0000017C0000014
S113008015C0000013C0000011C0000011241FBEE1
S1130090CFEFD0E1DEBFCDBF21E0A0E0B1E001C0F1
S11300A01D92A230B207E1F72BD03EC0A9CF1F9218
S11300B00F920FB60F9211248F939F9312BE8091CB
S11300C00001909101010196909301018093000138
S11300D09F918F910F900FBE0F901F90189587B32B
S11300E0806187BB83B7886483BF83B7806283BF23
S11300F083B7876083BF87B7816087BF12BE0895C7
S1130100EEDF789411BE20E030E080910001909100
S1130110010118161906CCF7109201011092000182
S10F012021BF2F5F3F4FF1CFF894FFCFB9
S9030000FC
